:020000040800F2
:1000000000500020C9050008490500084F050008F8
:10001000550500085B0500086105000800000000A8
:10002000000000000000000000000000670500085C
:1000300073050008000000007F0500088B0500081C
:100040001106000811060008110600081106000834
:100050001106000811060008110600081106000824
:100060001106000811060008110600081106000814
:100070001106000811060008110600081106000804
:1000800011060008110600081106000811060008F4
:1000900011060008110600081106000811060008E4
:1000A00011060008110600081106000811060008D4
:1000B000990500081106000811060008110600083D
:1000C00011060008110600081106000811060008B4
:1000D00011060008110600081106000811060008A4
:1000E000AD05000811060008110600080000000018
:1000F0000000000000000000000000000000000000
:0C01000000000000000000005FF808F1A3
:10010C0010B5054C237833B9044B13B10448AFF345
:10011C0000800123237010BD0C00002000000000A3
:10012C00F01D000808B5034B1BB103490348AFF39E
:10013C00008008BD0000000010000020F01D000829
:10014C0080B500AF00F060FA00F007F800F0BCF8E2
:10015C0000F090F800F042F8FEE780B590B000AFE8
:10016C0007F1180328220021184601F033FE3B1D2D
:10017C0000221A605A609A60DA601A610223BB612D
:10018C000123BB621023FB6202237B630023BB634E
:10019C004FF46013FB6307F11803184600F062FD7F
:1001AC000346002B01D000F02FF90F237B600223B4
:1001BC00BB60A023FB604FF480633B6100237B6139
:1001CC003B1D0221184600F0CDFF0346002B01D049
:1001DC0000F01AF900BF4037BD4680BD80B586B02F
:1001EC0000AF07F1080300221A605A609A60DA60C7
:1001FC003B4600221A605A601D4B4FF080421A6039
:10020C001B4B4FF6FF125A60194B00229A60184B89
:10021C006322DA60164B00221A61154B00229A6198
:10022C00134801F02DF90346002B01D000F0ECF837
:10023C004FF48053BB6007F1080319460C4801F0DA
:10024C005EFA0346002B01D000F0DEF800233B6081
:10025C0000237B603B461946054801F049FC0346E8
:10026C00002B01D000F0D0F800BF1837BD4680BD80
:10027C002800002080B500AF114B124A1A60104BB9
:10028C004FF4E1325A600E4B00229A600C4B002264
:10029C00DA600B4B00221A61094B0C225A61084B95
:1002AC0000229A61064B0022DA61054801F090FCAD
:1002BC000346002B01D000F0A7F800BF80BD00BFA3
:1002CC00700000200044004080B588B000AF07F1FA
:1002DC00100300221A605A609A60DA60454B9B69E1
:1002EC00444A43F010039361424B9B6903F01003A3
:1002FC00FB60FB683F4B9B693E4A43F020039361D4
:10030C003C4B9B6903F02003BB60BB68394B9B697A
:10031C00384A43F004039361364B9B6903F00403A2
:10032C007B607B68334B9B69324A43F008039361D3
:10033C00304B9B6903F008033B603B6800224FF491
:10034C00AC612D4800F054FC00224FF487612B481F
:10035C0000F04EFC4FF400533B61294B7B610023B2
:10036C00BB6107F110031946264800F0BDFA1323B0
:10037C003B6100237B610023BB6107F1100319462D
:10038C001D4800F0B1FA4FF4AC633B6101237B6173
:10039C000023BB610223FB6107F1100319461648C9
:1003AC0000F0A2FA01233B6100237B610023BB61B7
:1003BC0007F110031946114800F096FA4FF48763C1
:1003CC003B6101237B610023BB610223FB6107F1CD
:1003DC0010031946094800F087FA00220021282052
:1003EC0000F04BFA282000F064FA00BF2037BD461D
:1003FC0080BD00BF0010024000080140000C01400D
:10040C00000011100010014080B400AF72B600BFA4
:10041C00FEE7000080B485B000AF154B9B69144A11
:10042C0043F001039361124B9B6903F00103BB6022
:10043C00BB680F4BDB690E4A43F08053D3610C4B06
:10044C00DB6903F080537B607B680A4B5B68FB6065
:10045C00FB6823F0E063FB60FB6843F00073FB6018
:10046C00044AFB68536000BF1437BD4680BC70471C
:10047C00001002400000014080B584B000AF7860ED
:10048C007B681B68B3F1804F13D10C4BDB690B4AB3
:10049C0043F00103D361094BDB6903F00103FB60FB
:1004AC00FB68002200211C2000F0E7F91C2000F062
:1004BC0000FA00BF1037BD4680BD00BF00100240DF
:1004CC0080B588B000AF786007F1100300221A6085
:1004DC005A609A60DA607B681B68154A934223D194
:1004EC00144BDB69134A43F40033D361114BDB69C2
:1004FC0003F40033FB60FB680E4B9B690D4A43F021
:10050C00040393610B4B9B6903F00403BB60BB6852
:10051C000C233B6102237B610223FB6107F1100377
:10052C001946054800F0E0F900BF2037BD4680BDF4
:10053C0000440040001002400008014080B400AFAD
:10054C00FEE780B400AFFEE780B400AFFEE780B4F6
:10055C0000AFFEE780B400AFFEE780B400AF00BF91
:10056C00BD4680BC704780B400AF00BFBD4680BCA8
:10057C00704780B400AF00BFBD4680BC704780B5EB
:10058C0000AF00F087F800BF80BD000080B500AF61
:10059C00024800F0C4FF00BF80BD00BF280000204F
:1005AC0080B500AF4FF4005000F03AFB00BF80BDA7
:1005BC0080B400AF00BFBD4680BC7047FFF7F8FFAA
:1005CC000B480C490C4A002302E0D458C4500433A5
:1005DC00C4188C42F9D3094A094C002301E013607A
:1005EC000432A242FBD301F0D1FBFFF7A9FD704707
:1005FC00000000200C0000203C1E00080C00002015
:10060C00BC000020FEE7000080B500AF084B1B6863
:10061C00074A43F010031360032000F023F9002075
:10062C0000F008F8FFF7F6FE0023184680BD00BF67
:10063C000020024080B582B000AF7860124B1A687F
:10064C00124B1B7819464FF47A73B3FBF1F3B2FBE0
:10065C00F3F3184600F03BF90346002B01D00123BD
:10066C000EE07B680F2B0AD8002279684FF0FF3020
:10067C0000F003F9064A7B681360002300E00123B5
:10068C0018460837BD4680BD000000200800002039
:10069C000400002080B400AF054B1B781A46054BB4
:1006AC001B681344034A136000BFBD4680BC7047EF
:1006BC0008000020B800002080B400AF024B1B687B
:1006CC001846BD4680BC7047B800002080B485B089
:1006DC0000AF78607B6803F00703FB600C4BDB68B2
:1006EC00BB60BA684FF6FF031340BB60FB681A028D
:1006FC00BB68134343F0BF6343F40033BB60044A4D
:10070C00BB68D36000BF1437BD4680BC704700BFC8
:10071C0000ED00E080B400AF044BDB681B0A03F073
:10072C0007031846BD4680BC704700BF00ED00E0D3
:10073C0080B483B000AF0346FB7197F90730002BF0
:10074C000BDBFB7903F01F02064997F907305B09B5
:10075C00012000FA02F241F8232000BF0C37BD46FD
:10076C0080BC704700E100E080B483B000AF03466A
:10077C003960FB7197F90730002B0ADB3B68DAB262
:10078C000C4997F907301201D2B20B4483F80023BD
:10079C000AE03B68DAB20849FB7903F00F03043B2B
:1007AC001201D2B20B441A7600BF0C37BD4680BC86
:1007BC00704700BF00E100E000ED00E080B489B0BC
:1007CC0000AFF860B9607A60FB6803F00703FB6167
:1007DC00FB69C3F10703042B28BF0423BB61FB692E
:1007EC000433062B02D9FB69033B00E000237B6139
:1007FC004FF0FF32BB6902FA03F3DA43BB681A40CD
:10080C007B699A404FF0FF317B6901FA03F3D943BE
:10081C007B680B40134318462437BD4680BC704799
:10082C0080B582B000AF78607B68013BB3F1807F0C
:10083C0001D301230FE00A4A7B68013B53600F216F
:10084C004FF0FF30FFF790FF054B00229A60044BEE
:10085C0007221A60002318460837BD4680BD00BF2A
:10086C0010E000E080B582B000AF78607868FFF7E8
:10087C002DFF00BF0837BD4680BD80B586B000AFE8
:10088C000346B9607A60FB7300237B61FFF742FF7C
:10089C0078617A68B9687869FFF790FF024697F932
:1008AC000F3011461846FFF75FFF00BF1837BD46E3
:1008BC0080BD80B582B000AF0346FB7197F907305D
:1008CC001846FFF735FF00BF0837BD4680BD80B521
:1008DC0082B000AF78607868FFF7A2FF0346184635
:1008EC000837BD4680BD000080B48BB000AF786087
:1008FC00396000237B6200233B6269E101227B6A41
:10090C0002FA03F3FB613B681B68FA691340BB6195
:10091C00BA69FB699A4240F058813B685B689A4A15
:10092C0093425ED0984A934275D8984A934258D0D5
:10093C00964A93426FD8964A934252D0944A934225
:10094C0069D8944A93424CD0924A934263D8924AC3
:10095C00934246D0904A93425DD8122B2AD8122B40
:10096C0059D801A252F823F0EF090008C909000870
:10097C00DB0900081D0A0008230A0008230A0008E6
:10098C00230A0008230A0008230A0008230A000887
:10099C00230A0008230A0008230A0008230A000877
:1009AC00230A0008230A0008230A0008D1090008BA
:1009BC00E5090008794A934213D02CE03B68DB68C8
:1009CC003B6229E03B68DB6804333B6224E03B6814
:1009DC00DB6808333B621FE03B68DB680C333B622F
:1009EC001AE03B689B68002B02D104233B6213E0A6
:1009FC003B689B68012B05D108233B627B68FA6935
:100A0C001A6109E008233B627B68FA695A6103E0CA
:100A1C0000233B6200E000BFBB69FF2B01D87B6861
:100A2C0001E07B6804337B61BB69FF2B02D87B6AD6
:100A3C009B0002E07B6A083B9B003B617B691A6868
:100A4C000F213B6901FA03F3DB431A40396A3B6916
:100A5C0001FA03F31A437B691A603B685B6803F085
:100A6C008053002B00F0B1804D4B9B694C4A43F0F6
:100A7C00010393614A4B9B6903F00103BB60BB68A4
:100A8C00484A7B6A9B08023352F82330FB607B6A2E
:100A9C0003F003039B000F2202FA03F3DB43FA6813
:100AAC001340FB607B68404A934213D07B683F4AFB
:100ABC0093420DD07B683E4A934207D07B683D4AF7
:100ACC00934201D1032306E0042304E0022302E055
:100ADC00012300E000237A6A02F0030292009340A3
:100AEC00FA681343FB602F497B6A9B080233FA6850
:100AFC0041F823203B685B6803F48013002B06D07D
:100B0C002D4B9A682C49BB6913438B6006E02A4B2A
:100B1C009A68BB69DB43284913408B603B685B6870
:100B2C0003F40013002B06D0234BDA682249BB696F
:100B3C001343CB6006E0204BDA68BB69DB431E49EC
:100B4C001340CB603B685B6803F40033002B06D08A
:100B5C00194B5A681849BB6913434B6006E0164B96
:100B6C005A68BB69DB43144913404B603B685B68B4
:100B7C0003F48033002B21D00F4B1A680E49BB694C
:100B8C0013430B6021E000BF000032100000311055
:100B9C0000002210000021100000121000001110A3
:100BAC00001002400000014000080140000C014010
:100BBC000010014000140140000401400B4B1A6866
:100BCC00BB69DB43094913400B607B6A01337B62D1
:100BDC003B681A687B6A22FA03F3002B7FF48EAE13
:100BEC0000BF00BF2C37BD4680BC704700040140DD
:100BFC0080B483B000AF78600B467B8013467B706B
:100C0C007B78002B03D07A887B681A6103E07B88A1
:100C1C001A047B681A6100BF0C37BD4680BC704754
:100C2C0080B582B000AF0346FB80084B5A69FB8845
:100C3C001340002B06D0054AFB885361FB881846ED
:100C4C0000F006F800BF0837BD4680BD0004014027
:100C5C0080B483B000AF0346FB8000BF0C37BD46A9
:100C6C0080BC704780B586B000AF78607B68002B85
:100C7C0001D101236CE27B681B6803F00103002B9C
:100C8C0000F08780924B5B6803F00C03042B0CD0B4
:100C9C008F4B5B6803F00C03082B12D18C4B5B68F9
:100CAC0003F48033B3F5803F0BD1894B1B6803F4FD
:100CBC000033002B6CD07B685B68002B68D1012360
:100CCC0046E27B685B68B3F5803F06D1804B1B68BE
:100CDC007F4A43F4803313602EE07B685B68002B03
:100CEC000CD17B4B1B687A4A23F480331360784B0E
:100CFC001B68774A23F4802313601DE07B685B68D4
:100D0C00B3F5A02F0CD1724B1B68714A43F48023AE
:100D1C0013606F4B1B686E4A43F4803313600BE017
:100D2C006B4B1B686A4A23F480331360684B1B6857
:100D3C00674A23F4802313607B685B68002B13D015
:100D4C00FFF7BAFC386108E0FFF7B6FC02463B69D6
:100D5C00D31A642B01D90323FAE15D4B1B6803F40E
:100D6C000033002BF0D014E0FFF7A6FC386108E04C
:100D7C00FFF7A2FC02463B69D31A642B01D903236B
:100D8C00E6E1534B1B6803F40033002BF0D100E079
:100D9C0000BF7B681B6803F00203002B63D04C4B35
:100DAC005B6803F00C03002B0BD0494B5B6803F022
:100DBC000C03082B1CD1464B5B6803F48033002BCF
:100DCC0016D1434B1B6803F00203002B05D07B6844
:100DDC001B69012B01D00123BAE13D4B1B6823F0A9
:100DEC00F8027B685B69DB00394913430B603AE01E
:100DFC007B681B69002B20D0364B01221A60FFF751
:100E0C005BFC386108E0FFF757FC02463B69D31ADC
:100E1C00022B01D903239BE12D4B1B6803F002032A
:100E2C00002BF0D02A4B1B6823F0F8027B685B691F
:100E3C00DB00274913430B6015E0264B00221A6098
:100E4C00FFF73AFC386108E0FFF736FC02463B69D5
:100E5C00D31A022B01D903237AE11D4B1B6803F033
:100E6C000203002BF0D17B681B6803F00803002BF6
:100E7C003AD07B689B69002B19D0174B01221A6062
:100E8C00FFF71AFC386108E0FFF716FC02463B69D5
:100E9C00D31A022B01D903235AE10D4B5B6A03F0E1
:100EAC000203002BF0D0012000F0CCFA1CE00A4B1E
:100EBC0000221A60FFF700FC38610FE0FFF7FCFB23
:100ECC0002463B69D31A022B08D9032340E100BF29
:100EDC000010024000004242800442429E4B5B6A7A
:100EEC0003F00203002BE9D17B681B6803F00403B9
:100EFC00002B00F0A6800023FB75974BDB6903F0F9
:100F0C008053002B0DD1944BDB69934A43F08053F3
:100F1C00D361914BDB6903F08053BB60BB68012349
:100F2C00FB758E4B1B6803F48073002B18D18B4B15
:100F3C001B688A4A43F480731360FFF7BDFB38616A
:100F4C0008E0FFF7B9FB02463B69D31A642B01D9C1
:100F5C000323FDE0814B1B6803F48073002BF0D05E
:100F6C007B68DB68012B06D17B4B1B6A7A4A43F00A
:100F7C00010313622DE07B68DB68002B0CD1764BF0
:100F8C001B6A754A23F001031362734B1B6A724A86
:100F9C0023F0040313621CE07B68DB68052B0CD187
:100FAC006D4B1B6A6C4A43F0040313626A4B1B6A59
:100FBC00694A43F0010313620BE0674B1B6A664AF4
:100FCC0023F001031362644B1B6A634A23F004038E
:100FDC0013627B68DB68002B15D0FFF76DFB386163
:100FEC000AE0FFF769FB02463B69D31A41F28832EB
:100FFC00934201D90323ABE0574B1B6A03F0020366
:10100C00002BEED014E0FFF757FB38610AE0FFF736
:10101C0053FB02463B69D31A41F28832934201D901
:10102C00032395E04C4B1B6A03F00203002BEED11B
:10103C00FB7D012B05D1484BDB69474A23F08053DC
:10104C00D3617B68DB69002B00F08180424B5B68CD
:10105C0003F00C03082B61D07B68DB69022B46D1B3
:10106C003F4B00221A60FFF727FB386108E0FFF7BF
:10107C0023FB02463B69D31A022B01D9032367E0F9
:10108C00354B1B6803F00073002BF0D17B681B6A97
:10109C00B3F5803F08D1304B5B6823F400327B689A
:1010AC009B682D4913434B602B4B5B6823F47412E4
:1010BC007B68196A7B685B6A0B43274913434B6057
:1010CC00274B01221A60FFF7F7FA386108E0FFF7A7
:1010DC00F3FA02463B69D31A022B01D9032337E0FA
:1010EC001D4B1B6803F00073002BF0D02FE01C4B42
:1010FC0000221A60FFF7E0FA386108E0FFF7DCFA2B
:10110C0002463B69D31A022B01D9032320E0124B70
:10111C001B6803F00073002BF0D118E07B68DB69CF
:10112C00012B01D1012313E00B4B5B68FB60FB68C7
:10113C0003F480327B681B6A9A4206D1FB6803F485
:10114C0070127B685B6A9A4201D0012300E0002395
:10115C0018461837BD4680BD001002400070004094
:10116C006000424280B584B000AF786039607B6823
:10117C00002B01D10123D0E06A4B1B6803F007035D
:10118C003A689A4210D9674B1B6823F007026549ED
:10119C003B6813430B60634B1B6803F007033A680F
:1011AC009A4201D00123B8E07B681B6803F002036C
:1011BC00002B20D07B681B6803F00403002B05D0A8
:1011CC00594B5B68584A43F4E06353607B681B6877
:1011DC0003F00803002B05D0534B5B68524A43F4D1
:1011EC0060535360504B5B6823F0F0027B689B6844
:1011FC004D4913434B607B681B6803F00103002BC4
:10120C0040D07B685B68012B07D1474B1B6803F40C
:10121C000033002B15D101237FE07B685B68022B28
:10122C0007D1414B1B6803F00073002B09D101233C
:10123C0073E03D4B1B6803F00203002B01D101232B
:10124C006BE0394B5B6823F003027B685B683649C3
:10125C0013434B60FFF730FAF8600AE0FFF72CFA03
:10126C000246FB68D31A41F28832934201D9032318
:10127C0053E02D4B5B6803F00C027B685B689B00B2
:10128C009A42EBD1274B1B6803F007033A689A424A
:10129C0010D2244B1B6823F0070222493B681343EE
:1012AC000B60204B1B6803F007033A689A4201D08D
:1012BC00012332E07B681B6803F00403002B08D089
:1012CC00194B5B6823F4E0627B68DB6816491343B7
:1012DC004B607B681B6803F00803002B09D0124B92
:1012EC005B6823F460527B681B69DB000E49134377
:1012FC004B6000F021F802460B4B5B681B0903F0B6
:10130C000F030A49CB5C22FA03F3094A1360094B19
:10131C001B681846FFF78EF9002318461037BD4698
:10132C0080BD00BF0020024000100240081E0008D3
:10133C00000000200400002080B487B000AF002320
:10134C00FB600023BB6000237B6100237B600023D8
:10135C003B611E4B5B68FB60FB6803F00C03042BCA
:10136C0002D0082B03D027E0194B3B6127E0FB6828
:10137C009B0C03F00F03174AD35C7B60FB6803F4F0
:10138C008033002B10D0114B5B685B0C03F0010316
:10139C00114AD35CBB607B680D4A02FB03F2BB684D
:1013AC00B2FBF3F37B6104E07B680C4A02FB03F3B2
:1013BC007B617B693B6102E0054B3B6100BF3B6994
:1013CC0018461C37BD4680BC704700BF0010024059
:1013DC0000127A00201E0008301E000800093D0093
:1013EC0080B400AF024B1B681846BD4680BC7047EA
:1013FC000000002080B500AFFFF7F2FF0246054B5E
:10140C005B681B0A03F007030349CB5C22FA03F366
:10141C00184680BD00100240181E000880B500AFB1
:10142C00FFF7DEFF0246054B5B68DB0A03F00703A0
:10143C000349CB5C22FA03F3184680BD001002402E
:10144C00181E000880B485B000AF78600A4B1B688A
:10145C000A4AA2FB03235B0A7A6802FB03F3FB60D4
:10146C0000BFFB685A1EFA60002BF9D100BF00BF09
:10147C001437BD4680BC704700000020D34D62106D
:10148C0080B582B000AF78607B68002B01D101235E
:10149C0041E07B6893F83D30DBB2002B06D17B68D2
:1014AC00002283F83C207868FEF7E6FF7B68022276
:1014BC0083F83D207B681A687B6804331946104614
:1014CC0000F012FA7B68012283F846207B68012227
:1014DC0083F83E207B68012283F83F207B68012241
:1014EC0083F840207B68012283F841207B6801222D
:1014FC0083F842207B68012283F843207B68012219
:10150C0083F844207B68012283F845207B68012204
:10151C0083F83D20002318460837BD4680BD80B5B2
:10152C0084B000AF78607B681B68DB68FB607B680D
:10153C001B681B69BB60BB6803F00203002B20D047
:10154C00FB6803F00203002B1BD07B681B686FF059
:10155C0002021A617B6801221A777B681B689B69FF
:10156C0003F00303002B03D0786800F0A1F905E029
:10157C00786800F094F9786800F0A3F97B68002291
:10158C001A77BB6803F00403002B20D0FB6803F030
:10159C000403002B1BD07B681B686FF004021A61DC
:1015AC007B6802221A777B681B689B6903F4407383
:1015BC00002B03D0786800F07BF905E0786800F028
:1015CC006EF9786800F07DF97B6800221A77BB68A9
:1015DC0003F00803002B20D0FB6803F00803002B5A
:1015EC001BD07B681B686FF008021A617B680422B1
:1015FC001A777B681B68DB6903F00303002B03D0AD
:10160C00786800F055F905E0786800F048F97868DA
:10161C0000F057F97B6800221A77BB6803F01003BF
:10162C00002B20D0FB6803F01003002B1BD07B6831
:10163C001B686FF010021A617B6808221A777B68AE
:10164C001B68DB6903F44073002B03D0786800F04F
:10165C002FF905E0786800F022F9786800F031F98C
:10166C007B6800221A77BB6803F00103002B0CD0B7
:10167C00FB6803F00103002B07D07B681B686FF03D
:10168C0001021A61786800F001F9BB6803F080036D
:10169C00002B0CD0FB6803F08003002B07D07B6879
:1016AC001B686FF080021A61786800F088FABB68DA
:1016BC0003F04003002B0CD0FB6803F04003002B1D
:1016CC0007D07B681B686FF040021A61786800F0E5
:1016DC0001F9BB6803F02003002B0CD0FB6803F06E
:1016EC002003002B07D07B681B686FF020021A6167
:1016FC00786800F05BFA00BF1037BD4680BD80B53E
:10170C0084B000AF786039600023FB737B6893F87A
:10171C003C30012B01D10223B4E07B68012283F819
:10172C003C207B68022283F83D207B681B689B6809
:10173C00BB60BB6823F07703BB60BB6823F47F43BB
:10174C00BB607B681B68BA689A603B681B68B3F522
:10175C00005F3ED0B3F5005F00F28780B3F5805F89
:10176C0000F08680B3F5805F7FD8702B1AD0702B79
:10177C007BD8602B50D0602B77D8502B3CD0502B83
:10178C0073D8402B58D0402B6FD8302B64D0302BD3
:10179C006BD8202B60D0202B67D8002B5CD0102B63
:1017AC005AD062E07B6818683B6899683B685A6855
:1017BC003B68DB6800F07DF97B681B689B68BB604D
:1017CC00BB6843F07703BB607B681B68BA689A60A0
:1017DC004FE07B6818683B6899683B685A683B68BF
:1017EC00DB6800F066F97B681B689A687B681B688D
:1017FC0042F480429A603CE07B6818683B68596808
:10180C003B68DB681A4600F0DDF87B681B685021EA
:10181C00184600F034F92CE07B6818683B6859686E
:10182C003B68DB681A4600F0FBF87B681B6860219C
:10183C00184600F024F91CE07B6818683B6859686E
:10184C003B68DB681A4600F0BDF87B681B684021DA
:10185C00184600F014F90CE07B681A683B681B68AA
:10186C001946104600F00BF903E00123FB7300E06E
:10187C0000BF7B68012283F83D207B68002283F83F
:10188C003C20FB7B18461037BD4680BD80B483B02E
:10189C0000AF786000BF0C37BD4680BC704780B489
:1018AC0083B000AF786000BF0C37BD4680BC70477A
:1018BC0080B483B000AF786000BF0C37BD4680BCED
:1018CC00704780B483B000AF786000BF0C37BD4662
:1018DC0080BC704780B483B000AF786000BF0C3719
:1018EC00BD4680BC7047000080B485B000AF786006
:1018FC0039607B681B68FB607B682F4A93420BD076
:10190C007B68B3F1804F07D07B682C4A934203D09D
:10191C007B682B4A934208D1FB6823F07003FB6071
:10192C003B685B68FA681343FB607B68224A93420E
:10193C000BD07B68B3F1804F07D07B681F4A934272
:10194C0003D07B681E4A934208D1FB6823F4407392
:10195C00FB603B68DB68FA681343FB60FB6823F0B1
:10196C0080023B685B691343FB607B68FA681A6012
:10197C003B689A687B68DA623B681A687B689A6293
:10198C007B680D4A934203D13B681A697B681A63E2
:10199C007B6801225A617B681B6903F00103002BF1
:1019AC0005D07B681B6923F001027B681A6100BFBC
:1019BC001437BD4680BC7047002C01400004004029
:1019CC000008004080B487B000AFF860B9607A605E
:1019DC00FB681B6A7B61FB681B6A23F00102FB68D6
:1019EC001A62FB689B693B613B6923F0F0033B6126
:1019FC007B681B013A6913433B617B6923F00A0343
:101A0C007B617A69BB6813437B61FB683A699A61B5
:101A1C00FB687A691A6200BF1C37BD4680BC7047F0
:101A2C0080B487B000AFF860B9607A60FB681B6A5D
:101A3C007B61FB681B6A23F01002FB681A62FB686F
:101A4C009B693B613B6923F470433B617B681B03DF
:101A5C003A6913433B617B6923F0A0037B61BB684C
:101A6C001B017A6913437B61FB683A699A61FB68D5
:101A7C007A691A6200BF1C37BD4680BC704780B4BF
:101A8C0085B000AF786039607B689B68FB60FB6851
:101A9C0023F07003FB603A68FB68134343F00703C1
:101AAC00FB607B68FA689A6000BF1437BD4680BC47
:101ABC00704780B487B000AFF860B9607A603B6063
:101ACC00FB689B687B617B6923F47F437B613B688C
:101ADC001A027B681A43BB6813437A6913437B6110
:101AEC00FB687A699A6000BF1C37BD4680BC7047A2
:101AFC0080B485B000AF786039607B6893F83C3077
:101B0C00012B01D1022346E07B68012283F83C20A3
:101B1C007B68022283F83D207B681B685B68FB6056
:101B2C007B681B689B68BB60FB6823F07003FB60E1
:101B3C003B681B68FA681343FB607B681B68FA6898
:101B4C005A607B681B68164A93420ED07B681B68F0
:101B5C00B3F1804F09D07B681B68124A934204D0C2
:101B6C007B681B68104A93420CD1BB6823F080033E
:101B7C00BB603B685B68BA681343BB607B681B68DF
:101B8C00BA689A607B68012283F83D207B6800224A
:101B9C0083F83C20002318461437BD4680BC7047A0
:101BAC00002C0140000400400008004080B483B0C9
:101BBC0000AF786000BF0C37BD4680BC704780B466
:101BCC0083B000AF786000BF0C37BD4680BC704757
:101BDC0080B582B000AF78607B68002B01D1012307
:101BEC0042E07B6893F84130DBB2002B06D17B6876
:101BFC00002283F840207868FEF762FC7B68242280
:101C0C0083F841207B681B68DA687B681B6822F4C8
:101C1C000052DA60786800F02BF87B681B681A6950
:101C2C007B681B6822F490421A617B681B685A69B6
:101C3C007B681B6822F02A025A617B681B68DA6891
:101C4C007B681B6842F40052DA607B6800225A649D
:101C5C007B68202283F841207B68202283F8422075
:101C6C007B6800225A63002318460837BD4680BDA6
:101C7C0080B584B000AF78607B681B681B6923F467
:101C8C0040517B68DA687B681B680A431A617B6881
:101C9C009A687B681B691A437B685B691343BB605A
:101CAC007B681B68DB6823F4B05323F00C037A6861
:101CBC001268B9680B43D3607B681B685B6923F4BB
:101CCC0040717B689A697B681B680A435A617B6820
:101CDC001B682C4A934203D1FFF7A0FBF86002E08B
:101CEC00FFF788FBF860FA6813469B0013449A00D0
:101CFC001A447B685B689B00B2FBF3F3224AA2FB9D
:101D0C0003235B091901FA6813469B0013449A00DC
:101D1C001A447B685B689B00B2FBF3F21A4BA3FB83
:101D2C0002035B09642000FB03F3D31A1B0132335B
:101D3C00154AA2FB03235B0903F0F0031944FA686C
:101D4C0013469B0013449A001A447B685B689B0003
:101D5C00B2FBF3F20C4BA3FB02035B09642000FB08
:101D6C0003F3D31A1B013233074AA2FB03235B098B
:101D7C0003F00F027B681B680A449A6000BF10379F
:101D8C00BD4680BD003801401F85EB5170B5002663
:101D9C000C4D0D4C641BA410A64209D100F022F886
:101DAC0000260A4D0A4C641BA410A64205D170BD36
:101DBC0055F8043B98470136EEE755F8043B984735
:101DCC000136F2E7341E0008341E0008341E0008E9
:101DDC00381E000803460244934200D1704703F8B2
:101DEC00011BF9E7F8B500BFF8BC08BC9E4670476C
:0C1DFC00F8B500BFF8BC08BC9E4670475C
:101E080000000000000000000102030406070809A2
:101E18000000000001020304020304050607080984
:0C1E28000A0B0C0D0E0F10100102000040
:041E34003101000870
:041E38000D01000890
:0C1E3C0000127A001000000001000000FD
:04000005080005C921
:00000001FF
