:020000040800F2
:1000000000500020C11300082D130008331300080E
:10001000391300083F1300084513000800000000D2
:100020000000000000000000000000004B1300086A
:100030005713000800000000631300086F13000846
:10004000091400080914000809140008091400081C
:10005000091400080914000809140008091400080C
:1000600009140008091400080914000809140008FC
:1000700009140008091400080914000809140008EC
:1000800009140008091400080914000809140008DC
:1000900009140008091400080914000809140008CC
:1000A00009140008091400080914000809140008BC
:1000B0007D13000809140008091400080914000839
:1000C000091400080914000809140008091400089C
:1000D0000914000809140008911300080914000805
:1000E000A513000809140008091400080000000006
:1000F0000000000000000000000000000000000000
:0C01000000000000000000005FF808F1A3
:10010C0010B5054C237833B9044B13B10448AFF345
:10011C0000800123237010BD2C0000200000000083
:10012C006840000808B5034B1BB103490348AFF303
:10013C00008008BD0000000030000020684000086E
:10014C0080B500AF4FF0FF3000F006F84FF0FF30F5
:10015C0000F048F800BF80BD80B582B000AF786079
:10016C007B6840F24D12934220D07B68B3F5A77F99
:10017C0027DA7B686F2B03D07B68DE2B0BD020E05B
:10018C0001220821164801F01CFD012220211448EF
:10019C0001F017FD20E000220821114801F011FDAB
:1001AC00012220210E4801F00CFD15E0012208214E
:1001BC000B4801F006FD00222021094801F001FD49
:1001CC000AE000220821064801F0FBFC0022202155
:1001DC00034801F0F6FC00BF00BF0837BD4680BDE8
:1001EC00000C014080B582B000AF78607B6840F2B3
:1001FC004D12934222D07B68B3F5A77F2ADA7B6835
:10020C006F2B03D07B68DE2B0CD023E00122102156
:10021C00184801F0D6FC01224FF48061154801F01A
:10022C00D0FC23E000221021124801F0CAFC01226C
:10023C004FF480610F4801F0C4FC17E0012210213B
:10024C000C4801F0BEFC00224FF48061094801F01B
:10025C00B8FC0BE000221021064801F0B2FC002291
:10026C004FF48061034801F0ACFC00BF00BF0837BD
:10027C00BD4680BD000C014080B483B000AF7860F7
:10028C00164A7B68012142F82310154A7B6801212C
:10029C0042F82310134A7B68012142F82310124ABA
:1002AC007B68012142F82310104A7B684FF47A7165
:1002BC0042F823100E4A7B68002142F823100D4AA5
:1002CC007B68002142F823100B4A7B68002142F81E
:1002DC00231000BF0C37BD4680BC70476000002067
:1002EC006C0000209C0000205400002078000020AE
:1002FC0090000020A80000208400002080B483B06F
:10030C0000AF7860094A7B6852F82330012B06D184
:10031C00064A7B68002142F82310012300E00023E9
:10032C0018460C37BD4680BC704700BF84000020C7
:10033C0080B582B000AF00237B607DE0434A7B68D0
:10034C0052F8232042497B6841F82320414A7B68BC
:10035C0052F823203D497B6841F823203E4A7B68B4
:10036C0052F823203D497B6831F81330194610466A
:10037C0001F010FC03461946364A7B6842F82310FC
:10038C00324A7B6852F8232032497B6851F823307B
:10039C009A424ED12D4A7B6852F823202C497B6817
:1003AC0051F823309A4244D1294A7B6852F82320D1
:1003BC002B497B6851F823309A4219D0244A7B6828
:1003CC0052F8232026497B6841F82320244A7B6875
:1003DC0052F82330002B2CD1224A7B684FF47A71CF
:1003EC0042F82310204A7B68012142F8231020E0B8
:1003FC001C4A7B6852F82330A3F10A0219497B6826
:10040C0041F82320174A7B6852F82330002B10D177
:10041C00144A7B684FF4FA7142F82310104A7B6837
:10042C0052F82330002B04D10F4A7B68012142F88B
:10043C0023107B6801337B607B68022B7FF77EAFD8
:10044C0000BF00BF0837BD4680BD00BF6C00002058
:10045C009C00002060000020000000200C00002008
:10046C0054000020780000208400002080B400AFED
:10047C00094B1A68094B1B681A44094B1B689A42B2
:10048C0006D0054B1A68054B1B681344044A1360CD
:10049C0000BFBD4680BC70471C0000201800002027
:1004AC001400002080B500AFC34B1B68013B082B28
:1004BC0000F2B88101A252F823F000BFED0400084D
:1004CC009B050008DD050008190500085B05000800
:1004DC0055060008FB0600088F0700081D060008DB
:1004EC00FFF7C4FFB44B04221A60B44B1B681946C7
:1004FC00002000F0BFFD0020FFF700FF0346002B9B
:10050C0000F09281AC4B09221A608DE16F20FFF74D
:10051C0023FE40F24D10FFF765FE002000F0CAFDEF
:10052C000346002B08D0A44B05221A60A44B1B6871
:10053C001946002000F09EFD0020FFF7DFFE034669
:10054C00002B00F073819C4B09221A606EE16F2026
:10055C00FFF702FEDE20FFF745FE002000F0AAFDAB
:10056C000346002B08D0944B02221A60934B1B6855
:10057C001946002000F07EFD0020FFF7BFFE034669
:10058C00002B00F055818C4B09221A6050E140F28F
:10059C004D10FFF7E1FD6F20FFF724FE002000F067
:1005AC0089FD0346002B08D0834B03221A60844B31
:1005BC001B681946002000F05DFD0020FFF79EFE31
:1005CC000346002B00F036817B4B09221A6031E187
:1005DC00DE20FFF7C1FD6F20FFF704FE002000F0C6
:1005EC0069FD0346002B08D0734B04221A60734B31
:1005FC001B681946002000F03DFD0020FFF77EFE31
:10060C000346002B00F018816B4B09221A6013E192
:10061C003221002000F02EFD674B06221A600120CB
:10062C00FFF72AFE0220FFF727FEFFF789FD654B37
:10063C001B68654A1360624B1B68634A53605F4BCF
:10064C001B68614A9360FEE00020FFF757FE0346EB
:10065C00002B09D0584B07221A60FFF771FD32218D
:10066C00002000F007FDE9E00120FFF747FE0346FC
:10067C00002B0AD0544B1B6803F57A73524A136053
:10068C003221002000F0F6FCD8E00220FFF736FE05
:10069C000346002B0ED04C4B1B684A4A13600021BA
:1006AC00002000F0E7FC6F20FFF756FD6F20FFF7EE
:1006BC0099FDC3E0002000F0FDFC0346002B00F088
:1006CC00BD801021414801F094FA4FF480613F48FD
:1006DC0001F08FFA08213D4801F08BFA20213B48AC
:1006EC0001F087FA3221002000F0C4FCA6E00020C3
:1006FC00FFF704FE0346002B09D02F4B08221A608B
:10070C00FFF71EFD3221002000F0B4FC98E0012020
:10071C00FFF7F4FD0346002B0AD02B4B5B6803F567
:10072C007A73294A53603221002000F0A3FC87E041
:10073C000220FFF7E3FD0346002B0ED0224B5B6833
:10074C001F4A13600021002000F094FCDE20FFF70C
:10075C0003FDDE20FFF746FD72E0002000F0AAFC4E
:10076C000346002B6CD04FF48061184801F041FA1D
:10077C002021164801F03DFA3221002000F07AFCCD
:10078C005EE00020FFF7BAFD0346002B03D00A4BB6
:10079C0001221A6056E00120FFF7B0FD0346002B42
:1007AC0016D0094B9B6803F57A73074A9360322184
:1007BC00002000F05FFC45E04800002018000020FD
:1007CC001C00002014000020B4000020000C01408C
:1007DC000220FFF793FD0346002B10D01B4B9B68A8
:1007EC001B4A13600021002000F044FC40F24D1025
:1007FC00FFF7B2FC40F24D10FFF7F4FC22E00020B2
:10080C0000F058FC0346002B1CD01021114801F0BD
:10081C00F0F908210F4801F0ECF93221002000F02A
:10082C0029FC0FE000BF0EE000BF0CE000BF0AE0A7
:10083C0000BF08E000BF06E000BF04E000BF02E01C
:10084C0000BF00E000BF00BF80BD00BFB4000020AF
:10085C0018000020000C014080B586B002AF0346A2
:10086C00FB71FB7923F00F03FB73FB791B01BB734B
:10087C00FB7B43F00C03DBB23B72FB7B43F00803C6
:10088C00DBB27B72BB7B43F00C03DBB2BB72BB7B7A
:10089C0043F00803DBB2FB7207F1080264230093F8
:1008AC0004234221034801F023FB00BF1037BD464F
:1008BC0080BD00BFC000002080B586B002AF0346EB
:1008CC00FB71FB7923F00F03FB73FB791B01BB73EB
:1008DC00FB7B43F00D03DBB23B72FB7B43F0090364
:1008EC00DBB27B72BB7B43F00D03DBB2BB72BB7B19
:1008FC0043F00903DBB2FB7207F108026423009397
:10090C0004234221034801F0F3FA00BF1037BD461F
:10091C0080BD00BFC000002080B582B000AF802039
:10092C00FFF79AFF00237B6005E02020FFF7C4FF50
:10093C007B6801337B607B68452BF6DD00BF00BF15
:10094C000837BD4680BD80B582B000AF7860396095
:10095C007B68002B03D07B68012B05D009E03B683A
:10096C0043F080033B6004E03B6843F0C0033B6012
:10097C0000BF3B68DBB21846FFF76EFF00BF0837BD
:10098C00BD4680BD80B500AF322000F09BFD30200D
:10099C00FFF762FF052000F095FD3020FFF75CFFAC
:1009AC00012000F08FFD3020FFF756FF0A2000F0E9
:1009BC0089FD2020FFF750FF0A2000F083FD28203E
:1009CC00FFF74AFF012000F07DFD0820FFF744FFF0
:1009DC00012000F077FD0120FFF73EFF012000F021
:1009EC0071FD012000F06EFD0620FFF735FF0120A0
:1009FC0000F068FD0C20FFF72FFF00BF80BD80B515
:100A0C0082B000AF786006E07B685A1C7A601B7875
:100A1C001846FFF751FF7B681B78002BF4D100BF01
:100A2C0000BF0837BD4680BD80B586B000AF01233E
:100A3C00FB750223BB75FFF76FFF00210020FFF74A
:100A4C0082FF0348FFF7DBFF00BF1837BD4680BDB0
:100A5C008040000880B500AF00F0D2FC00F036F802
:100A6C0000F01AF900F0EEF800F0A0F800F070F8C1
:100A7C00104802F0F3F900F0BFF9FFF783FF0E4BBB
:100A8C0001221A600A2200210C4800F0C5F90A2242
:100A9C0000210B4800F0C0F90A220021094800F09F
:100AAC00BBF941F288320021074800F0B5F900F09B
:100ABC005BFAFCE714010020480000203D0300080D
:100ACC00F5100008B1040008350A000880B590B094
:100ADC0000AF07F1180328220021184603F0B6FADC
:100AEC003B1D00221A605A609A60DA601A61022378
:100AFC00BB610123BB621023FB6202237B630023D7
:100B0C00BB634FF46013FB6307F11803184601F045
:100B1C0047FD0346002B01D000F068F90F237B60E2
:100B2C000223BB600023FB604FF480633B61002316
:100B3C007B613B1D0221184601F0B2FF0346002BDE
:100B4C0001D000F053F900BF4037BD4680BD000016
:100B5C0080B500AF124B134A1A60114B124A5A60FF
:100B6C000F4B00229A600E4B0022DA600C4B4FF4B4
:100B7C0080421A610A4B00225A61094B00229A6189
:100B8C00074B0022DA61064B00221A62044801F07E
:100B9C006BF80346002B01D000F028F900BF80BD94
:100BAC00C000002000540040A086010080B586B033
:100BBC0000AF07F1080300221A605A609A60DA60ED
:100BCC003B4600221A605A601D4B4FF080421A605F
:100BDC001B4B4FF6FF125A60194B00229A60184BB0
:100BEC000922DA60164B00221A61154B00229A6119
:100BFC00134802F0E3F80346002B01D000F0F6F89E
:100C0C004FF48053BB6007F1080319460C4802F0FF
:100C1C0067FA0346002B01D000F0E8F800233B6094
:100C2C0000237B603B461946054802F049FC03460D
:100C3C00002B01D000F0DAF800BF1837BD4680BD9C
:100C4C001401002080B500AF114B124A1A60104BF2
:100C5C004FF416525A600E4B00229A600C4B002235
:100C6C00DA600B4B00221A61094B0C225A61084BBB
:100C7C0000229A61064B0022DA61054802F090FCD2
:100C8C000346002B01D000F0B1F800BF80BD00BFBF
:100C9C005C0100200044004080B588B000AF07F133
:100CAC00100300221A605A609A60DA60454B9B6907
:100CBC00444A43F010039361424B9B6903F01003C9
:100CCC00FB60FB683F4B9B693E4A43F020039361FA
:100CDC003C4B9B6903F02003BB60BB68394B9B69A1
:100CEC00384A43F004039361364B9B6903F00403C9
:100CFC007B607B68334B9B69324A43F008039361FA
:100D0C00304B9B6903F008033B603B6800224FF4B7
:100D1C00AC612D4800F055FF00224FF487612B4841
:100D2C0000F04FFF4FF400533B61294B7B610023D4
:100D3C00BB6107F110031946264800F0A7FD1323E9
:100D4C003B6100237B610123BB6107F11003194652
:100D5C001D4800F09BFD4FF4AC633B6101237B61AC
:100D6C000023BB610223FB6107F1100319461648EF
:100D7C0000F08CFD01233B6100237B610123BB61EF
:100D8C0007F110031946114800F080FD4FF48763FA
:100D9C003B6101237B610023BB610223FB6107F1F3
:100DAC0010031946094800F071FD0022002128208B
:100DBC0000F083FC282000F09CFC00BF2037BD46CF
:100DCC0080BD00BF0010024000080140000C014033
:100DDC00000011100010014080B582B000AF7860A7
:100DEC0000F0B4F800BF0837BD4680BD80B400AF3A
:100DFC0072B600BFFEE7000080B400AF044B0022C7
:100E0C001A70044B00221A6000BFBD4680BC7047AC
:100E1C004C0000205000002080B485B000AFF8607A
:100E2C00B9607A60294B1B78272B4AD8274B1B7843
:100E3C001946274A0B469B000B449B001344FA6847
:100E4C001A60224B1B781846BB68224AA2FB03236C
:100E5C00DA081F4903469B0003449B000B440433F0
:100E6C001A601A4B1B7818467B681A4AA2FB03239C
:100E7C00DA08174903469B0003449B000B440833D4
:100E8C001A60124B1B781946114A0B469B000B44F7
:100E9C009B0013440C3300221A700C4B1A780B4B2A
:100EAC001B78194610460A4A0B469B000B449B00C4
:100EBC00134410331860054B1B780133DAB2034B23
:100ECC001A7000BF1437BD4680BC70474C00002020
:100EDC00A4010020CDCCCCCCB0B485B000AF7860F0
:100EEC00184B1B781A467B68934226D27B68FB60B2
:100EFC0017E0FB685A1C1448F9680B469B000B441E
:100F0C009B001844104913469B0013449B000B4450
:100F1C0004461D460FCD0FC42B682360FB680133BC
:100F2C00FB60084B1B78013BFA689A42E1DB054BEE
:100F3C001B78013BDAB2034B1A7000BF1437BD4665
:100F4C00B0BC70474C000020A401002080B400AF5E
:100F5C00044B1B680133034A136000BFBD4680BCC1
:100F6C00704700BF5000002080B582B000AF002356
:100F7C007B606EE03C497A6813469B0013449B00EF
:100F8C000B4404331A68394B1B689A4240D83649D3
:100F9C007A6813469B0013449B000B440C331B785C
:100FAC000133D8B230497A6813469B0013449B0036
:100FBC000B440C3302461A702B497A6813469B007B
:100FCC0013449B000B4408331B68002B1CD0264990
:100FDC007A6813469B0013449B000B440433196836
:100FEC0021487A6813469B0013449B000344083342
:100FFC001B6819441C487A6813469B0013449B00D9
:10100C0003440433196003E07B681846FFF764FF60
:10101C0015497A6813469B0013449B000B440C3310
:10102C001B78002B12D010497A6813469B0013448E
:10103C009B000B440C3300221A700B497A68134640
:10104C009B0013449B000B441B6898477B6801333F
:10105C007B60074B1B781A467B6893428ADB00BF88
:10106C0000BF0837BD4680BDA40100205000002001
:10107C004C00002080B483B000AF786039603B68CE
:10108C00094A82FB03129210DB17D21A07497B68BC
:10109C0041F82320064A7B68002142F8231000BF48
:1010AC000C37BD4680BC704767666666C40400207A
:1010BC00F004002080B483B000AF7860094A7B68EC
:1010CC0052F82330012B06D1064A7B68002142F8E6
:1010DC002310012300E0002318460C37BD4680BCCA
:1010EC00704700BFF004002080B483B000AF002331
:1010FC007B601CE0124A7B6852F82330002B13DD16
:10110C000F4A7B6852F823305A1E0D497B6841F810
:10111C0023200B4A7B6852F82330002B04DC094A4D
:10112C007B68012142F823107B6801337B607B686C
:10113C000A2BDFDD00BF00BF0C37BD4680BC7047FB
:10114C00C4040020F004002080B485B000AF154B1F
:10115C009B69144A43F001039361124B9B6903F0A2
:10116C000103BB60BB680F4BDB690E4A43F0805335
:10117C00D3610C4BDB6903F080537B607B680A4BBB
:10118C005B68FB60FB6823F0E063FB60FB6843F08B
:10119C000073FB60044AFB68536000BF1437BD4604
:1011AC0080BC7047001002400000014080B58AB03E
:1011BC0000AF786007F1140300221A605A609A603D
:1011CC00DA607B681B681D4A934232D11C4B9B69C9
:1011DC001B4A43F008039361194B9B6903F0080306
:1011EC003B613B694FF440737B611223BB6103236A
:1011FC003B6207F114031946124800F047FB124BEF
:10120C005B687B627B6A43F0E0637B627B6A43F0E2
:10121C0002037B620C4A7B6A5360094BDB69084A08
:10122C0043F40013D361064BDB6903F40013FB603A
:10123C00FB6800BF2837BD4680BD00BF005400408E
:10124C0000100240000C01400000014080B584B049
:10125C0000AF78607B681B68B3F1804F13D10C4BE7
:10126C00DB690B4A43F00103D361094BDB6903F0E3
:10127C000103FB60FB68002200211C2000F01DFA1A
:10128C001C2000F036FA00BF1037BD4680BD00BFF1
:10129C000010024080B588B000AF786007F11003F1
:1012AC0000221A605A609A60DA607B681B68194ADF
:1012BC0093422BD1184BDB69174A43F40033D361AB
:1012CC00154BDB6903F40033FB60FB68124B9B6925
:1012DC00114A43F0040393610F4B9B6903F0040321
:1012EC00BB60BB680C233B6102237B610223FB6167
:1012FC0007F110031946094800F0C8FA0022002132
:10130C00262000F0DAF9262000F0F3F900BF203790
:10131C00BD4680BD00440040001002400008014062
:10132C0080B400AFFEE780B400AFFEE780B400AF3E
:10133C00FEE780B400AFFEE780B400AFFEE780B4F8
:10134C0000AF00BFBD4680BC704780B400AF00BF8B
:10135C00BD4680BC704780B400AF00BFBD4680BCAA
:10136C00704780B500AF00F091F800BF80BD000061
:10137C0080B500AF024801F0C3FD00BF80BD00BFC7
:10138C001401002080B500AF024802F059F900BFEB
:10139C0080BD00BF5C01002080B500AF4FF4005051
:1013AC0000F040FC00BF80BD80B400AF00BFBD4664
:1013BC0080BC7047FFF7F8FF0B480C490C4A002320
:1013CC0002E0D458C4500433C4188C42F9D3094AEF
:1013DC00094C002301E013600432A242FBD302F05B
:1013EC0011FEFFF737FB7047000000202C00002097
:1013FC00C04000082C00002020050020FEE7000063
:10140C0080B500AF084B1B68074A43F0100313600C
:10141C00032000F047F9002000F008F8FFF794FED5
:10142C000023184680BD00BF0020024080B582B06A
:10143C0000AF7860124B1A68124B1B7819464FF4A8
:10144C007A73B3FBF1F3B2FBF3F3184600F05FF9D8
:10145C000346002B01D001230EE07B680F2B0AD82A
:10146C00002279684FF0FF3000F027F9064A7B68BC
:10147C001360002300E0012318460837BD4680BDE9
:10148C0020000020280000202400002080B400AFA1
:10149C00054B1B781A46054B1B681344034A136013
:1014AC0000BFBD4680BC7047280000201C050020F2
:1014BC0080B400AF024B1B681846BD4680BC704719
:1014CC001C05002080B584B000AF7860FFF7F0FFFA
:1014DC00B8607B68FB60FB68B3F1FF3F05D00A4B3B
:1014EC001B781A46FB681344FB6000BFFFF7E0FF54
:1014FC000246BB68D31AFA689A42F7D800BF00BFFD
:10150C001037BD4680BD00BF2800002080B485B0D8
:10151C0000AF78607B6803F00703FB600C4BDB6863
:10152C00BB60BA684FF6FF031340BB60FB681A023E
:10153C00BB68134343F0BF6343F40033BB60044AFE
:10154C00BB68D36000BF1437BD4680BC704700BF7A
:10155C0000ED00E080B400AF044BDB681B0A03F025
:10156C0007031846BD4680BC704700BF00ED00E085
:10157C0080B483B000AF0346FB7197F90730002BA2
:10158C000BDBFB7903F01F02064997F907305B0967
:10159C00012000FA02F241F8232000BF0C37BD46AF
:1015AC0080BC704700E100E080B483B000AF03461C
:1015BC003960FB7197F90730002B0ADB3B68DAB214
:1015CC000C4997F907301201D2B20B4483F800236F
:1015DC000AE03B68DAB20849FB7903F00F03043BDD
:1015EC001201D2B20B441A7600BF0C37BD4680BC38
:1015FC00704700BF00E100E000ED00E080B489B06E
:10160C0000AFF860B9607A60FB6803F00703FB6118
:10161C00FB69C3F10703042B28BF0423BB61FB69DF
:10162C000433062B02D9FB69033B00E000237B61EA
:10163C004FF0FF32BB6902FA03F3DA43BB681A407E
:10164C007B699A404FF0FF317B6901FA03F3D94370
:10165C007B680B40134318462437BD4680BC70474B
:10166C0080B582B000AF78607B68013BB3F1807FBE
:10167C0001D301230FE00A4A7B68013B53600F2121
:10168C004FF0FF30FFF790FF054B00229A60044BA0
:10169C0007221A60002318460837BD4680BD00BFDC
:1016AC0010E000E080B582B000AF78607868FFF79A
:1016BC002DFF00BF0837BD4680BD80B586B000AF9A
:1016CC000346B9607A60FB7300237B61FFF742FF2E
:1016DC0078617A68B9687869FFF790FF024697F9E4
:1016EC000F3011461846FFF75FFF00BF1837BD4695
:1016FC0080BD80B582B000AF0346FB7197F907300F
:10170C001846FFF735FF00BF0837BD4680BD80B5D2
:10171C0082B000AF78607868FFF7A2FF03461846E6
:10172C000837BD4680BD80B485B000AF786000231B
:10173C00FB737B6893F82130DBB2022B08D07B68FB
:10174C0004229A637B68002283F82020012320E086
:10175C007B681B681A687B681B6822F00E021A6093
:10176C007B681B681A687B681B6822F001021A6090
:10177C007B681A6C7B68DB6B012101FA02F25A6000
:10178C007B68012283F821207B68002283F82020CB
:10179C00FB7B18461437BD4680BC704780B584B0BF
:1017AC0000AF78600023FB737B6893F82130DBB2C9
:1017BC00022B05D07B6804229A630123FB7351E052
:1017CC007B681B681A687B681B6822F00E021A6023
:1017DC007B681B681A687B681B6822F001021A6020
:1017EC007B681B68224A934229D07B681B68214A7C
:1017FC00934222D07B681B681F4A93421AD07B68A5
:10180C001B681E4A934212D07B681B681C4A934289
:10181C000AD07B681B681B4A934202D14FF4801399
:10182C000EE04FF080730BE04FF4803308E04FF480
:10183C00805305E04FF4807302E0102300E0012395
:10184C00114A53607B68012283F821207B680022B7
:10185C0083F820207B685B6B002B03D07B685B6B71
:10186C0078689847FB7B18461037BD4680BD00BF93
:10187C00080002401C0002403000024044000240BC
:10188C00580002406C0002400000024080B48BB053
:10189C0000AF7860396000237B6200233B6269E112
:1018AC0001227B6A02FA03F3FB613B681B68FA694D
:1018BC001340BB61BA69FB699A4240F058813B689E
:1018CC005B689A4A93425ED0984A934275D8984A7C
:1018DC00934258D0964A93426FD8964A934252D02C
:1018EC00944A934269D8944A93424CD0924A934278
:1018FC0063D8924A934246D0904A93425DD8122BB9
:10190C002AD8122B59D801A252F823F093190008A7
:10191C006D1900087F190008C1190008C7190008C3
:10192C00C7190008C7190008C7190008C71900080B
:10193C00C7190008C7190008C7190008C7190008FB
:10194C00C7190008C7190008C7190008C7190008EB
:10195C007519000889190008794A934213D02CE0B4
:10196C003B68DB683B6229E03B68DB6804333B6225
:10197C0024E03B68DB6808333B621FE03B68DB68B4
:10198C000C333B621AE03B689B68002B02D10423AA
:10199C003B6213E03B689B68012B05D108233B623B
:1019AC007B68FA691A6109E008233B627B68FA6973
:1019BC005A6103E000233B6200E000BFBB69FF2BD0
:1019CC0001D87B6801E07B6804337B61BB69FF2B2A
:1019DC0002D87B6A9B0002E07B6A083B9B003B6160
:1019EC007B691A680F213B6901FA03F3DB431A4048
:1019FC00396A3B6901FA03F31A437B691A603B6845
:101A0C005B6803F08053002B00F0B1804D4B9B6959
:101A1C004C4A43F0010393614A4B9B6903F0010369
:101A2C00BB60BB68484A7B6A9B08023352F8233080
:101A3C00FB607B6A03F003039B000F2202FA03F3A3
:101A4C00DB43FA681340FB607B68404A934213D037
:101A5C007B683F4A93420DD07B683E4A934207D045
:101A6C007B683D4A934201D1032306E0042304E042
:101A7C00022302E0012300E000237A6A02F0030251
:101A8C0092009340FA681343FB602F497B6A9B08D2
:101A9C000233FA6841F823203B685B6803F4801337
:101AAC00002B06D02D4B9A682C49BB6913438B60D5
:101ABC0006E02A4B9A68BB69DB43284913408B60CC
:101ACC003B685B6803F40013002B06D0234BDA68E9
:101ADC002249BB691343CB6006E0204BDA68BB6933
:101AEC00DB431E491340CB603B685B6803F4003357
:101AFC00002B06D0194B5A681849BB6913434B602D
:101B0C0006E0164B5A68BB69DB43144913404B6023
:101B1C003B685B6803F48033002B21D00F4B1A68B1
:101B2C000E49BB6913430B6021E000BF000032106B
:101B3C0000003110000022100000211000001210D3
:101B4C00000011100010024000000140000801408C
:101B5C00000C014000100140001401400004014041
:101B6C000B4B1A68BB69DB43094913400B607B6A5A
:101B7C0001337B623B681A687B6A22FA03F3002B01
:101B8C007FF48EAE00BF00BF2C37BD4680BC7047C3
:101B9C000004014080B485B000AF78600B467B80B8
:101BAC007B689A687B881340002B02D00123FB735F
:101BBC0001E00023FB73FB7B18461437BD4680BC49
:101BCC00704780B483B000AF78600B467B801346BF
:101BDC007B707B78002B03D07A887B681A6103E0DA
:101BEC007B881A047B681A6100BF0C37BD4680BC29
:101BFC00704780B485B000AF78600B467B807B6803
:101C0C00DB68FB607A88FB6813401A04FB68D943D5
:101C1C007B880B401A437B681A6100BF1437BD46A2
:101C2C0080BC704780B582B000AF0346FB80084B88
:101C3C005A69FB881340002B06D0054AFB88536178
:101C4C00FB88184600F006F800BF0837BD4680BD7B
:101C5C000004014080B483B000AF0346FB8000BF9A
:101C6C000C37BD4680BC704780B584B000AF78603F
:101C7C007B68002B01D101232BE17B6893F83D306D
:101C8C00DBB2002B06D17B68002283F83C207868FD
:101C9C00FFF78CFA7B68242283F83D207B681B6855
:101CAC001A687B681B6822F001021A607B681B684B
:101CBC001A687B681B6842F400421A607B681B68D8
:101CCC001A687B681B6822F400421A6001F030F835
:101CDC00F8607B685B68814A934207D8FB68804A4E
:101CEC00934294BF01230023DBB206E0FB687D4ADC
:101CFC00934294BF01230023DBB2002B01D00123BC
:101D0C00E7E0FB68784AA2FB03239B0CBB607B6873
:101D1C001B685B6823F03F017B681B68BA680A4349
:101D2C005A607B681B681B6A23F03F017B685B6809
:101D3C006A4A934202D8BB68013309E0BB684FF48E
:101D4C00967202FB03F3694AA2FB03239B0901333E
:101D5C007A6812680B4313627B681B68DB6923F497
:101D6C004F4222F0FF027B685B685C498B4219D8BA
:101D7C00FB68591E7B685B685B00B1FBF3F3591C75
:101D8C0040F6FC730B40002B0AD0FB68591E7B6895
:101D9C005B685B00B1FBF3F30133C3F30B0351E05E
:101DAC0004234FE07B689B68002B11D1FB68581E05
:101DBC007B6859680B465B000B44B0FBF3F30133B3
:101DCC00C3F30B03002B0CBF01230023DBB212E087
:101DDC00FB68581E7B6859680B469B000B449900A6
:101DEC000B44B0FBF3F30133C3F30B03002B0CBF19
:101DFC0001230023DBB2002B01D0012322E07B68FE
:101E0C009B68002B0ED1FB68581E7B6859680B46EB
:101E1C005B000B44B0FBF3F30133C3F30B0343F44C
:101E2C0000430FE0FB68581E7B6859680B469B000B
:101E3C000B4499000B44B0FBF3F30133C3F30B03D6
:101E4C0043F44043796809681343CB617B681B6892
:101E5C001B6823F0C0017B68DA697B681B6A1A4334
:101E6C007B681B680A431A607B681B689B6823F4B9
:101E7C00034323F0FF037A6811697A68D26811432F
:101E8C007A6812680B4393607B681B68DB6823F0ED
:101E9C00FF017B685A697B689B691A437B681B68E6
:101EAC000A43DA607B681B681A687B681B6842F01F
:101EBC0001021A607B6800221A647B68202283F876
:101ECC003D207B6800221A637B68002283F83E2049
:101EDC00002318461037BD4680BD00BFA086010008
:101EEC007F841E00FF083D0083DE1B43D34D621030
:101EFC0080B588B002AFF8607A601A460B467B81D9
:101F0C0013463B81FFF7D4FA7861FB6893F83D30B8
:101F1C00DBB2202B40F0E0807B6900931923012277
:101F2C007049F86800F064F90346002B01D00223D5
:101F3C00D3E0FB6893F83C30012B01D10223CCE0B9
:101F4C00FB68012283F83C20FB681B681B6803F0CC
:101F5C000103012B07D0FB681B681A68FB681B6820
:101F6C0042F001021A60FB681B681A68FB681B6868
:101F7C0022F400621A60FB68212283F83D20FB6882
:101F8C00102283F83E20FB6800221A64FB687A68F2
:101F9C005A62FB683A895A85FB685B8D9AB2FB687A
:101FAC001A85FB68504ADA6279897B693A6AF86863
:101FBC0000F09CF80346002B01D001238DE0002398
:101FCC003B61FB681B685B693B61FB681B689B6939
:101FDC003B613B6966E07A69396AF86800F022FA7D
:101FEC000346002B0DD0FB681B6C042B07D1FB6840
:101FFC001B681A68FB681B6842F400721A600123A4
:10200C006BE0FB685B6A1A78FB681B681A61FB68FB
:10201C005B6A5A1CFB685A62FB685B8D9BB2013B86
:10202C009AB2FB685A85FB681B8D013B9AB2FB6820
:10203C001A85FB681B685B6903F00403042B1BD136
:10204C00FB681B8D002B17D0FB685B6A1A78FB684A
:10205C001B681A61FB685B6A5A1CFB685A62FB6856
:10206C005B8D9BB2013B9AB2FB685A85FB681B8D5A
:10207C00013B9AB2FB681A857A69396AF86800F0F4
:10208C0019FA0346002B0DD0FB681B6C042B07D1EF
:10209C00FB681B681A68FB681B6842F400721A60C4
:1020AC0001231AE0FB681B8D002B94D1FB681B6885
:1020BC001A68FB681B6842F400721A60FB682022E5
:1020CC0083F83D20FB68002283F83E20FB68002249
:1020DC0083F83C20002300E0022318461837BD4645
:1020EC0080BD00BF020010000000FFFF80B588B06B
:1020FC0002AFF8607A603B600B467B81FB68DB6A61
:10210C007B617B69082B06D07B69012B03D07B6933
:10211C0013F5803F08D1FB681B681A68FB681B68C5
:10212C0042F480721A600BE0FB681B6B122B07D118
:10213C00FB681B681A68FB681B6842F480721A60A3
:10214C003B6800937B6800224FF00111F86800F0A7
:10215C004FF80346002B0DD0FB681B681B6803F47B
:10216C008073B3F5807F03D1FB684FF400721A645F
:10217C00032335E0FB681B69B3F5804F08D17B89DD
:10218C00DBB21A46FB681B6802F0FE021A611BE008
:10219C007B89DB11DBB203F00603DBB263F00F03C8
:1021AC00DAB2FB681B681A613B687A680E49F868FA
:1021BC0000F098F80346002B01D0012310E07B8936
:1021CC00DAB2FB681B681A613B687A680749F868E1
:1021DC0000F088F80346002B01D0012300E0002317
:1021EC0018461837BD4680BD0800010002000100EA
:1021FC0080B584B000AFF860B9603B601346FB71EA
:10220C0048E03B68B3F1FF3F44D0FFF751F9024679
:10221C00BB69D31A3A689A4202D33B68002B39D176
:10222C00BB681B0CDBB2012B0DD1FB681B685B6917
:10223C00DA43BB6813409BB2002B0CBF0123002375
:10224C00DBB21A460CE0FB681B689B69DA43BB687F
:10225C0013409BB2002B0CBF01230023DBB21A46A8
:10226C00FB799A4216D1FB6800221A63FB68202284
:10227C0083F83D20FB68002283F83E20FB681B6C32
:10228C0043F02002FB681A64FB68002283F83C20B0
:10229C00012323E0BB681B0CDBB2012B0DD1FB68C7
:1022AC001B685B69DA43BB6813409BB2002B0CBF05
:1022BC0001230023DBB21A460CE0FB681B689B6908
:1022CC00DA43BB6813409BB2002B0CBF01230023E5
:1022DC00DBB21A46FB799A4293D00023184610378A
:1022EC00BD4680BD80B584B000AFF860B9607A603F
:1022FC003B6071E0FB681B685B6903F48063B3F5BA
:10230C00806F23D1FB681B681A68FB681B6842F45A
:10231C0000721A60FB681B686FF480625A61FB687C
:10232C0000221A63FB68202283F83D20FB68002200
:10233C0083F83E20FB681B6C43F00402FB681A64B4
:10234C00FB68002283F83C20012367E07B68B3F133
:10235C00FF3F41D0FFF7ACF802463B68D31A7A68CE
:10236C009A4202D37B68002B36D1BB681B0CDBB2C4
:10237C00012B0CD1FB681B685B69DA43BB6813400B
:10238C009BB2002B14BF01230023DBB20BE0FB68D4
:10239C001B689B69DA43BB6813409BB2002B14BFCC
:1023AC0001230023DBB2002B16D0FB6800221A633A
:1023BC00FB68202283F83D20FB68002283F83E2036
:1023CC00FB681B6C43F02002FB681A64FB6800225C
:1023DC0083F83C20012321E0BB681B0CDBB2012BF2
:1023EC000CD1FB681B685B69DA43BB6813409BB27A
:1023FC00002B14BF01230023DBB20BE0FB681B682E
:10240C009B69DA43BB6813409BB2002B14BF0123BA
:10241C000023DBB2002B7FF46DAF0023184610377E
:10242C00BD4680BD80B584B000AFF860B9607A60FD
:10243C0034E0F86800F086F80346002B01D0012345
:10244C0034E0BB68B3F1FF3F28D0FFF731F8024608
:10245C007B68D31ABA689A4202D3BB68002B1DD191
:10246C00FB681B685B6903F08003802B16D0FB684C
:10247C0000221A63FB68202283F83D20FB680022AF
:10248C0083F83E20FB681B6C43F02002FB681A6447
:10249C00FB68002283F83C20012307E0FB681B68E3
:1024AC005B6903F08003802BC3D1002318461037DF
:1024BC00BD4680BD80B584B000AFF860B9607A606D
:1024CC0034E0F86800F03EF80346002B01D00123FD
:1024DC0034E0BB68B3F1FF3F28D0FEF7E9FF0246BA
:1024EC007B68D31ABA689A4202D3BB68002B1DD101
:1024FC00FB681B685B6903F00403042B16D0FB68B4
:10250C0000221A63FB68202283F83D20FB6800221E
:10251C0083F83E20FB681B6C43F02002FB681A64B6
:10252C00FB68002283F83C20012307E0FB681B6852
:10253C005B6903F00403042BC3D100231846103746
:10254C00BD4680BD80B483B000AF78607B681B68EB
:10255C005B6903F48063B3F5806F1BD17B681B68E8
:10256C006FF480625A617B6800221A637B682022B8
:10257C0083F83D207B68002283F83E207B681B6C2F
:10258C0043F004027B681A647B68002283F83C20C9
:10259C00012300E0002318460C37BD4680BC704771
:1025AC0080B586B000AF78607B68002B01D1012329
:1025BC006CE27B681B6803F00103002B00F0878042
:1025CC00924B5B6803F00C03042B0CD08F4B5B68B5
:1025DC0003F00C03082B12D18C4B5B6803F4803393
:1025EC00B3F5803F0BD1894B1B6803F40033002BF0
:1025FC006CD07B685B68002B68D1012346E27B685A
:10260C005B68B3F5803F06D1804B1B687F4A43F46F
:10261C00803313602EE07B685B68002B0CD17B4B06
:10262C001B687A4A23F480331360784B1B68774A13
:10263C0023F4802313601DE07B685B68B3F5A02F47
:10264C000CD1724B1B68714A43F4802313606F4B9F
:10265C001B686E4A43F4803313600BE06B4B1B68B2
:10266C006A4A23F480331360684B1B68674A23F46F
:10267C00802313607B685B68002B13D0FEF718FF78
:10268C00386108E0FEF714FF02463B69D31A642B4D
:10269C0001D90323FAE15D4B1B6803F40033002BD3
:1026AC00F0D014E0FEF704FF386108E0FEF700FFFD
:1026BC0002463B69D31A642B01D90323E6E1534B41
:1026CC001B6803F40033002BF0D100E000BF7B68E3
:1026DC001B6803F00203002B63D04C4B5B6803F0C8
:1026EC000C03002B0BD0494B5B6803F00C03082B3D
:1026FC001CD1464B5B6803F48033002B16D1434B43
:10270C001B6803F00203002B05D07B681B69012BAF
:10271C0001D00123BAE13D4B1B6823F0F8027B6822
:10272C005B69DB00394913430B603AE07B681B693A
:10273C00002B20D0364B01221A60FEF7B9FE38610F
:10274C0008E0FEF7B5FE02463B69D31A022B01D90D
:10275C0003239BE12D4B1B6803F00203002BF0D0ED
:10276C002A4B1B6823F0F8027B685B69DB00274966
:10277C0013430B6015E0264B00221A60FEF798FEFF
:10278C00386108E0FEF794FE02463B69D31A022B2F
:10279C0001D903237AE11D4B1B6803F00203002BC4
:1027AC00F0D17B681B6803F00803002B3AD07B68E0
:1027BC009B69002B19D0174B01221A60FEF778FE8B
:1027CC00386108E0FEF774FE02463B69D31A022B0F
:1027DC0001D903235AE10D4B5B6A03F00203002B72
:1027EC00F0D0012000F0CCFA1CE00A4B00221A6059
:1027FC00FEF75EFE38610FE0FEF75AFE02463B69BB
:10280C00D31A022B08D9032340E100BF0010024069
:10281C0000004242800442429E4B5B6A03F002037A
:10282C00002BE9D17B681B6803F00403002B00F03C
:10283C00A6800023FB75974BDB6903F08053002BBC
:10284C000DD1944BDB69934A43F08053D361914B88
:10285C00DB6903F08053BB60BB680123FB758E4BB7
:10286C001B6803F48073002B18D18B4B1B688A4AAE
:10287C0043F480731360FEF71BFE386108E0FEF72B
:10288C0017FE02463B69D31A642B01D90323FDE0E2
:10289C00814B1B6803F48073002BF0D07B68DB68E2
:1028AC00012B06D17B4B1B6A7A4A43F0010313625E
:1028BC002DE07B68DB68002B0CD1764B1B6A754ACC
:1028CC0023F001031362734B1B6A724A23F0040357
:1028DC0013621CE07B68DB68052B0CD16D4B1B6A0B
:1028EC006C4A43F0040313626A4B1B6A694A43F057
:1028FC00010313620BE0674B1B6A664A23F001036A
:10290C001362644B1B6A634A23F0040313627B68F3
:10291C00DB68002B15D0FEF7CBFD38610AE0FEF723
:10292C00C7FD02463B69D31A41F28832934201D962
:10293C000323ABE0574B1B6A03F00203002BEED0D2
:10294C0014E0FEF7B5FD38610AE0FEF7B1FD024672
:10295C003B69D31A41F28832934201D9032395E0A3
:10296C004C4B1B6A03F00203002BEED1FB7D012BB9
:10297C0005D1484BDB69474A23F08053D3617B6810
:10298C00DB69002B00F08180424B5B6803F00C0389
:10299C00082B61D07B68DB69022B46D13F4B0022B0
:1029AC001A60FEF785FD386108E0FEF781FD0246EE
:1029BC003B69D31A022B01D9032367E0354B1B6803
:1029CC0003F00073002BF0D17B681B6AB3F5803FDA
:1029DC0008D1304B5B6823F400327B689B682D492F
:1029EC0013434B602B4B5B6823F474127B68196A9E
:1029FC007B685B6A0B43274913434B60274B0122CF
:102A0C001A60FEF755FD386108E0FEF751FD0246ED
:102A1C003B69D31A022B01D9032337E01D4B1B68EA
:102A2C0003F00073002BF0D02FE01C4B00221A6037
:102A3C00FEF73EFD386108E0FEF73AFD02463B69C1
:102A4C00D31A022B01D9032320E0124B1B6803F08D
:102A5C000073002BF0D118E07B68DB69012B01D1EE
:102A6C00012313E00B4B5B68FB60FB6803F48032C3
:102A7C007B681B6A9A4206D1FB6803F470127B6870
:102A8C005B6A9A4201D0012300E0002318461837F4
:102A9C00BD4680BD00100240007000406000424204
:102AAC0080B584B000AF786039607B68002B01D1B1
:102ABC000123D0E06A4B1B6803F007033A689A4283
:102ACC0010D9674B1B6823F0070265493B68134319
:102ADC000B60634B1B6803F007033A689A4201D002
:102AEC000123B8E07B681B6803F00203002B20D0A5
:102AFC007B681B6803F00403002B05D0594B5B6803
:102B0C00584A43F4E06353607B681B6803F0080386
:102B1C00002B05D0534B5B68524A43F4605353600F
:102B2C00504B5B6823F0F0027B689B684D49134364
:102B3C004B607B681B6803F00103002B40D07B6863
:102B4C005B68012B07D1474B1B6803F40033002B48
:102B5C0015D101237FE07B685B68022B07D1414BC9
:102B6C001B6803F00073002B09D1012373E03D4B6C
:102B7C001B6803F00203002B01D101236BE0394BDE
:102B8C005B6823F003027B685B68364913434B6038
:102B9C00FEF78EFCF8600AE0FEF78AFC0246FB6842
:102BAC00D31A41F28832934201D9032353E02D4BBF
:102BBC005B6803F00C027B685B689B009A42EBD16C
:102BCC00274B1B6803F007033A689A4210D2244B38
:102BDC001B6823F0070222493B6813430B60204B10
:102BEC001B6803F007033A689A4201D0012332E0D4
:102BFC007B681B6803F00403002B08D0194B5B683F
:102C0C0023F4E0627B68DB68164913434B607B68F6
:102C1C001B6803F00803002B09D0124B5B6823F4EC
:102C2C0060527B681B69DB000E4913434B6000F05C
:102C3C0021F802460B4B5B681B0903F00F030A4992
:102C4C00CB5C22FA03F3094A1360094B1B68184644
:102C5C00FEF7ECFB002318461037BD4680BD00BFC5
:102C6C0000200240001002408C4000082000002090
:102C7C002400002080B487B000AF0023FB60002349
:102C8C00BB6000237B6100237B6000233B611E4BF8
:102C9C005B68FB60FB6803F00C03042B02D0082B71
:102CAC0003D027E0194B3B6127E0FB689B0C03F03A
:102CBC000F03174AD35C7B60FB6803F48033002B53
:102CCC0010D0114B5B685B0C03F00103114AD35C11
:102CDC00BB607B680D4A02FB03F2BB68B2FBF3F3EB
:102CEC007B6104E07B680C4A02FB03F37B617B692C
:102CFC003B6102E0054B3B6100BF3B6918461C374A
:102D0C00BD4680BC704700BF0010024000127A0024
:102D1C00A4400008B440000800093D0080B400AF96
:102D2C00024B1B681846BD4680BC70472000002033
:102D3C0080B500AFFFF7F2FF0246054B5B681B0A3C
:102D4C0003F007030349CB5C22FA03F3184680BD5A
:102D5C00001002409C40000880B500AFFFF7DEFF7A
:102D6C000246054B5B68DB0A03F007030349CB5CA7
:102D7C0022FA03F3184680BD001002409C40000864
:102D8C0080B485B000AF78600A4B1B680A4AA2FB7E
:102D9C0003235B0A7A6802FB03F3FB6000BFFB684A
:102DAC005A1EFA60002BF9D100BF00BF1437BD4684
:102DBC0080BC704720000020D34D621080B582B0DB
:102DCC0000AF78607B68002B01D1012341E07B6868
:102DDC0093F83D30DBB2002B06D17B68002283F8E0
:102DEC003C207868FEF732FA7B68022283F83D209B
:102DFC007B681A687B6804331946104600F05CFA4D
:102E0C007B68012283F846207B68012283F83E20F0
:102E1C007B68012283F83F207B68012283F84020E5
:102E2C007B68012283F841207B68012283F84220D1
:102E3C007B68012283F843207B68012283F84420BD
:102E4C007B68012283F845207B68012283F83D20B2
:102E5C00002318460837BD4680BD000080B485B0FD
:102E6C0000AF78607B6893F83D30DBB2012B01D06A
:102E7C0001233AE07B68022283F83D207B681B68C3
:102E8C00DA687B681B6842F00102DA607B681B68B9
:102E9C00184A93420ED07B681B68B3F1804F09D05F
:102EAC007B681B68144A934204D07B681B68134AE6
:102EBC00934211D17B681B689B6803F00703FB608E
:102ECC00FB68062B10D07B681B681A687B681B6834
:102EDC0042F001021A6007E07B681B681A687B6885
:102EEC001B6842F001021A60002318461437BD46D5
:102EFC0080BC7047002C01400004004000080040DA
:102F0C0080B584B000AF78607B681B68DB68FB60C1
:102F1C007B681B681B69BB60BB6803F00203002B5A
:102F2C0020D0FB6803F00203002B1BD07B681B68CE
:102F3C006FF002021A617B6801221A777B681B68AA
:102F4C009B6903F00303002B03D0786800F098F919
:102F5C0005E0786800F08BF9786800F09AF97B68E6
:102F6C0000221A77BB6803F00403002B20D0FB6807
:102F7C0003F00403002B1BD07B681B686FF004026A
:102F8C001A617B6802221A777B681B689B6903F4C1
:102F9C004073002B03D0786800F072F905E0786874
:102FAC0000F065F9786800F074F97B6800221A77F4
:102FBC00BB6803F00803002B20D0FB6803F0080368
:102FCC00002B1BD07B681B686FF008021A617B68B2
:102FDC0004221A777B681B68DB6903F00303002B60
:102FEC0003D0786800F04CF905E0786800F03FF900
:102FFC00786800F04EF97B6800221A77BB6803F002
:10300C001003002B20D0FB6803F01003002B1BD007
:10301C007B681B686FF010021A617B6808221A77B4
:10302C007B681B68DB6903F44073002B03D0786862
:10303C0000F026F905E0786800F019F9786800F0DE
:10304C0028F97B6800221A77BB6803F00103002B78
:10305C000CD0FB6803F00103002B07D07B681B68C6
:10306C006FF001021A617868FDF7B6FEBB6803F0D9
:10307C008003002B0CD0FB6803F08003002B07D0DF
:10308C007B681B686FF080021A61786800F07FFA29
:10309C00BB6803F04003002B0CD0FB6803F040032B
:1030AC00002B07D07B681B686FF040021A617868B0
:1030BC0000F0F8F8BB6803F02003002B0CD0FB6881
:1030CC0003F02003002B07D07B681B686FF02002F5
:1030DC001A61786800F052FA00BF1037BD4680BD07
:1030EC0080B584B000AF786039600023FB737B68D7
:1030FC0093F83C30012B01D10223B4E07B68012210
:10310C0083F83C207B68022283F83D207B681B6897
:10311C009B68BB60BB6823F07703BB60BB6823F480
:10312C007F43BB607B681B68BA689A603B681B680E
:10313C00B3F5005F3ED0B3F5005F00F28780B3F5C6
:10314C00805F00F08680B3F5805F7FD8702B1AD03B
:10315C00702B7BD8602B50D0602B77D8502B3CD069
:10316C00502B73D8402B58D0402B6FD8302B64D0B9
:10317C00302B6BD8202B60D0202B67D8002B5CD049
:10318C00102B5AD062E07B6818683B6899683B68E2
:10319C005A683B68DB6800F074F97B681B689B68B5
:1031AC00BB60BB6843F07703BB607B681B68BA6885
:1031BC009A604FE07B6818683B6899683B685A686E
:1031CC003B68DB6800F05DF97B681B689A687B687C
:1031DC001B6842F480429A603CE07B6818683B684C
:1031EC0059683B68DB681A4600F0D4F87B681B68AA
:1031FC005021184600F02BF92CE07B6818683B68CE
:10320C0059683B68DB681A4600F0F2F87B681B686B
:10321C006021184600F01BF91CE07B6818683B68BD
:10322C0059683B68DB681A4600F0B4F87B681B6889
:10323C004021184600F00BF90CE07B681A683B68DB
:10324C001B681946104600F002F903E00123FB73DA
:10325C0000E000BF7B68012283F83D207B680022E0
:10326C0083F83C20FB7B18461037BD4680BD80B4EC
:10327C0083B000AF786000BF0C37BD4680BC704790
:10328C0080B483B000AF786000BF0C37BD4680BC03
:10329C00704780B483B000AF786000BF0C37BD4678
:1032AC0080BC704780B483B000AF786000BF0C372F
:1032BC00BD4680BC7047000080B485B000AF78601C
:1032CC0039607B681B68FB607B682F4A93420BD08C
:1032DC007B68B3F1804F07D07B682C4A934203D0B4
:1032EC007B682B4A934208D1FB6823F07003FB6088
:1032FC003B685B68FA681343FB607B68224A934225
:10330C000BD07B68B3F1804F07D07B681F4A934288
:10331C0003D07B681E4A934208D1FB6823F44073A8
:10332C00FB603B68DB68FA681343FB60FB6823F0C7
:10333C0080023B685B691343FB607B68FA681A6028
:10334C003B689A687B68DA623B681A687B689A62A9
:10335C007B680D4A934203D13B681A697B681A63F8
:10336C007B6801225A617B681B6903F00103002B07
:10337C0005D07B681B6923F001027B681A6100BFD2
:10338C001437BD4680BC7047002C0140000400403F
:10339C000008004080B487B000AFF860B9607A6074
:1033AC00FB681B6A7B61FB681B6A23F00102FB68EC
:1033BC001A62FB689B693B613B6923F0F0033B613C
:1033CC007B681B013A6913433B617B6923F00A0359
:1033DC007B617A69BB6813437B61FB683A699A61CC
:1033EC00FB687A691A6200BF1C37BD4680BC704707
:1033FC0080B487B000AFF860B9607A60FB681B6A74
:10340C007B61FB681B6A23F01002FB681A62FB6885
:10341C009B693B613B6923F470433B617B681B03F5
:10342C003A6913433B617B6923F0A0037B61BB6862
:10343C001B017A6913437B61FB683A699A61FB68EB
:10344C007A691A6200BF1C37BD4680BC704780B4D5
:10345C0085B000AF786039607B689B68FB60FB6867
:10346C0023F07003FB603A68FB68134343F00703D7
:10347C00FB607B68FA689A6000BF1437BD4680BC5D
:10348C00704780B487B000AFF860B9607A603B6079
:10349C00FB689B687B617B6923F47F437B613B68A2
:1034AC001A027B681A43BB6813437A6913437B6126
:1034BC00FB687A699A6000BF1C37BD4680BC7047B8
:1034CC0080B485B000AF786039607B6893F83C308D
:1034DC00012B01D1022346E07B68012283F83C20BA
:1034EC007B68022283F83D207B681B685B68FB606D
:1034FC007B681B689B68BB60FB6823F07003FB60F8
:10350C003B681B68FA681343FB607B681B68FA68AE
:10351C005A607B681B68164A93420ED07B681B6806
:10352C00B3F1804F09D07B681B68124A934204D0D8
:10353C007B681B68104A93420CD1BB6823F0800354
:10354C00BB603B685B68BA681343BB607B681B68F5
:10355C00BA689A607B68012283F83D207B68002260
:10356C0083F83C20002318461437BD4680BC7047B6
:10357C00002C0140000400400008004080B483B0DF
:10358C0000AF786000BF0C37BD4680BC704780B47C
:10359C0083B000AF786000BF0C37BD4680BC70476D
:1035AC0080B582B000AF78607B68002B01D101231D
:1035BC0042E07B6893F84130DBB2002B06D17B688C
:1035CC00002283F840207868FDF764FE7B68242293
:1035DC0083F841207B681B68DA687B681B6822F4DF
:1035EC000052DA60786800F07FFC7B681B681A690F
:1035FC007B681B6822F490421A617B681B685A69CD
:10360C007B681B6822F02A025A617B681B68DA68A7
:10361C007B681B6842F40052DA607B6800225A64B3
:10362C007B68202283F841207B68202283F842208B
:10363C007B6800225A63002318460837BD4680BDBC
:10364C0080B5BAB000AF78607B681B681B68C7F8A0
:10365C00E4307B681B68DB68C7F8E0307B681B686C
:10366C005B69C7F8DC300023C7F8D8300023C7F8F3
:10367C00D430D7F8E43003F00F03C7F8D830D7F8BC
:10368C00D830002B0FD1D7F8E43003F02003002BF7
:10369C0009D0D7F8E03003F02003002B03D0786872
:1036AC0000F063FB5BE2D7F8D830002B00F0DE8033
:1036BC00D7F8DC3003F00103002B06D1D7F8E0304B
:1036CC0003F49073002B00F0D180D7F8E43003F0B2
:1036DC000103002B0BD0D7F8E03003F48073002BE0
:1036EC0005D07B685B6C43F001027B685A64D7F8A9
:1036FC00E43003F00403002B0BD0D7F8DC3003F0DC
:10370C000103002B05D07B685B6C43F002027B68E5
:10371C005A64D7F8E43003F00203002B0BD0D7F82F
:10372C00DC3003F00103002B05D07B685B6C43F0AD
:10373C0004027B685A64D7F8E43003F00803002BCA
:10374C0011D0D7F8E03003F02003002B05D1D7F8C7
:10375C00DC3003F00103002B05D07B685B6C43F07D
:10376C0008027B685A647B685B6C002B00F0F2816A
:10377C00D7F8E43003F02003002B08D0D7F8E03062
:10378C0003F02003002B02D0786800F0EEFA7B687F
:10379C001B685B6903F04003002B14BF012300235B
:1037AC00DBB2C7F8D4307B685B6C03F00803002BEA
:1037BC0003D1D7F8D430002B4FD0786800F0F8F94B
:1037CC007B681B685B6903F04003002B41D07B686E
:1037DC001B681433C7F89C30D7F89C3053E8003F73
:1037EC00C7F89830D7F8983023F04003C7F8D0309A
:1037FC007B681B681433D7F8D020C7F8A820C7F80B
:10380C00A430D7F8A410D7F8A82041E80023C7F8B3
:10381C00A030D7F8A030002BD9D17B68DB6B002B04
:10382C0013D07B68DB6B7E4A5A637B68DB6B184674
:10383C00FDF7B4FF0346002B16D07B68DB6B5B6B8C
:10384C007A68D26B104698470EE0786800F09CF9C5
:10385C000AE0786800F098F906E0786800F094F9CE
:10386C007B6800225A6475E100BF73E17B681B6BB7
:10387C00012B40F04F81D7F8E43003F01003002BFC
:10388C0000F04881D7F8E03003F01003002B00F073
:10389C0041810023BB607B681B681B68BB607B6835
:1038AC001B685B68BB60BB687B681B685B6903F06B
:1038BC004003002B00F0B6807B68DB6B1B685B68F9
:1038CC00A7F8BE30B7F8BE30002B00F045817B68FE
:1038DC009B8DB7F8BE209A4280F03E817B68B7F88A
:1038EC00BE20DA857B68DB6B9B69202B00F088801F
:1038FC007B681B680C33C7F88830D7F8883053E8DE
:10390C00003FC7F88430D7F8843023F48073C7F8AD
:10391C00B8307B681B680C33D7F8B820C7F89420F4
:10392C00C7F89030D7F89010D7F8942041E80023CE
:10393C00C7F88C30D7F88C30002BD9D17B681B683A
:10394C0014337B677B6F53E8003F3B673B6F23F07F
:10395C000103C7F8B4307B681B681433D7F8B42064
:10396C00C7F88020FB67F96FD7F8802041E8002367
:10397C00BB67BB6F002BE1D17B681B6814333B66C4
:10398C003B6E53E8003FFB65FB6D23F04003C7F82B
:10399C00B0307B681B681433D7F8B020FA66BB666E
:1039AC00B96EFA6E41E800237B667B6E002BE3D187
:1039BC007B68202283F842207B6800221A637B6894
:1039CC001B680C33FB64FB6C53E8003FBB64BB6CA3
:1039DC0023F01003C7F8AC307B681B680C33D7F8A6
:1039EC00AC20BA657B65796DBA6D41E800233B6507
:1039FC003B6D002BE3D17B68DB6B1846FDF793FE28
:103A0C007B6802225A637B689A8D7B68DB8D9BB244
:103A1C00D31A9BB21946786800F0BFF89CE000BF3F
:103A2C00813C00087B689A8D7B68DB8D9BB2D31A36
:103A3C00A7F8CE307B68DB8D9BB2002B00F08E801C
:103A4C00B7F8CE30002B00F089807B681B680C33F4
:103A5C00BB63BB6B53E8003F7B637B6B23F49073BE
:103A6C00C7F8C8307B681B680C33D7F8C8207A6459
:103A7C003B64396C7A6C41E80023FB63FB6B002BD5
:103A8C00E3D17B681B6814337B627B6A53E8003F8D
:103A9C003B623B6A23F00103C7F8C4307B681B68A8
:103AAC001433D7F8C4203A63FB62F96A3A6B41E8E5
:103ABC000023BB62BB6A002BE3D17B68202283F816
:103ACC0042207B6800221A637B681B680C333B61C5
:103ADC003B6953E8003FFB60FB6823F01003C7F819
:103AEC00C0307B681B680C33D7F8C020FA61BB610F
:103AFC00B969FA6941E800237B617B69002BE3D14A
:103B0C007B6802225A63B7F8CE301946786800F009
:103B1C0044F823E0D7F8E43003F08003002B09D0FD
:103B2C00D7F8E03003F08003002B03D0786800F066
:103B3C00B5F814E0D7F8E43003F04003002B0ED0B6
:103B4C00D7F8E03003F04003002B08D0786800F081
:103B5C00F4F804E000BF02E000BF00E000BFE8376B
:103B6C00BD4680BD80B483B000AF786000BF0C3719
:103B7C00BD4680BC704780B483B000AF786000BF96
:103B8C000C37BD4680BC704780B483B000AF786002
:103B9C0000BF0C37BD4680BC704780B483B000AF0B
:103BAC0078600B467B8000BF0C37BD4680BC7047ED
:103BBC0080B495B000AF78607B681B680C337B6376
:103BCC007B6B53E8003F3B633B6B23F49073FB64CC
:103BDC007B681B680C33FA6C3A64FB63F96B3A6CC8
:103BEC0041E80023BB63BB6B002BE5D17B681B68F2
:103BFC0014333B623B6A53E8003FFB61FB6923F0E3
:103C0C000103BB647B681B681433BA6CFA62BB6239
:103C1C00B96AFA6A41E800237B627B6A002BE5D122
:103C2C007B681B6B012B19D17B681B680C33FB6009
:103C3C00FB6853E8003FBB60BB6823F010037B6458
:103C4C007B681B680C337A6CBA617B617969BA69E1
:103C5C0041E800233B613B69002BE5D17B682022C6
:103C6C0083F842207B6800221A6300BF5437BD469C
:103C7C0080BC704780B584B000AF78607B685B6AAD
:103C8C00FB60FB680022DA85FB680022DA84F868A6
:103C9C00FFF77AFF00BF1037BD4680BD80B485B0FA
:103CAC0000AF78607B6893F84130DBB2212B3ED1BA
:103CBC007B689B68B3F5805F14D17B681B69002B14
:103CCC0010D17B681B6AFB60FB681B881A467B68FB
:103CDC001B68C2F308025A607B681B6A9A1C7B68DB
:103CEC001A6208E07B681B6A591C7A6811621A78A0
:103CFC007B681B685A607B68DB8C9BB2013B9BB278
:103D0C007A681946D184002B0FD17B681B68DA685E
:103D1C007B681B6822F08002DA607B681B68DA68BB
:103D2C007B681B6842F04002DA60002300E002234B
:103D3C0018461437BD4680BC704780B582B000AFC2
:103D4C0078607B681B68DA687B681B6822F040022D
:103D5C00DA607B68202283F841207868FFF702FF45
:103D6C00002318460837BD4680BD80B58CB000AF27
:103D7C0078607B6893F84230DBB2222B40F0AE8047
:103D8C007B689B68B3F5805F17D17B681B69002B40
:103D9C0013D10023FB627B689B6ABB627B681B6848
:103DAC005B689BB2C3F308039AB2BB6A1A807B6848
:103DBC009B6A9A1C7B689A6226E07B689B6AFB6212
:103DCC000023BB627B689B68B3F5805F07D07B6880
:103DDC009B68002B0AD17B681B69002B06D17B6882
:103DEC001B685B68DAB2FB6A1A7008E07B681B68B8
:103DFC005B68DBB203F07F03DAB2FB6A1A707B6894
:103E0C009B6A5A1C7B689A627B68DB8D9BB2013B78
:103E1C009BB27A681946D185002B5DD17B681B68F3
:103E2C00DA687B681B6822F02002DA607B681B680A
:103E3C00DA687B681B6822F48072DA607B681B6826
:103E4C005A697B681B6822F001025A617B68202248
:103E5C0083F842207B6800225A637B681B6B012B22
:103E6C0035D17B6800221A637B681B680C337B613D
:103E7C007B6953E8003F3B613B6923F010037B6295
:103E8C007B681B680C337A6A3A62FB61F9693A6A9F
:103E9C0041E80023BB61BB69002BE5D17B681B6843
:103EAC001B6803F01003102B0AD10023FB607B6806
:103EBC001B681B68FB607B681B685B68FB60FB68AE
:103ECC007B689B8D19467868FFF767FE02E078687F
:103EDC00FFF751FE002302E0002300E00223184606
:103EEC003037BD4680BD000080B584B000AF78602F
:103EFC007B681B681B6923F440517B68DA687B681C
:103F0C001B680A431A617B689A687B681B691A43B1
:103F1C007B685B691343BB607B681B68DB6823F4BD
:103F2C00B05323F00C037A681268B9680B43D36062
:103F3C007B681B685B6923F440717B689A697B68BA
:103F4C001B680A435A617B681B682C4A934203D155
:103F5C00FEF702FFF86002E0FEF7EAFEF860FA688E
:103F6C0013469B0013449A001A447B685B689B00C1
:103F7C00B2FBF3F3224AA2FB03235B091901FA6893
:103F8C0013469B0013449A001A447B685B689B00A1
:103F9C00B2FBF3F21A4BA3FB02035B09642000FB98
:103FAC0003F3D31A1B013233154AA2FB03235B091B
:103FBC0003F0F0031944FA6813469B0013449A006B
:103FCC001A447B685B689B00B2FBF3F20C4BA3FBBF
:103FDC0002035B09642000FB03F3D31A1B01323389
:103FEC00074AA2FB03235B0903F00F027B681B68E3
:103FFC000A449A6000BF1037BD4680BD00380140AE
:10400C001F85EB5170B500260C4D0D4C641BA41094
:10401C00A64209D100F022F800260A4D0A4C641B76
:10402C00A410A64205D170BD55F8043B9847013643
:10403C00EEE755F8043B98470136F2E7B840000824
:10404C00B8400008B8400008BC40000803460244D1
:10405C00934200D1704703F8011BF9E7F8B500BF94
:10406C00F8BC08BC9E467047F8B500BFF8BC08BC4D
:04407C009E467047A5
:1040800048656C6C6F20576F726C64000000000014
:1040900000000000010203040607080900000000F8
:1040A0000102030402030405060708090A0B0C0DAC
:0840B0000E0F101001020000C8
:0440B80031010008CA
:0440BC000D010008EA
:1040C0000008014000080140000C014002001000FF
:1040D0000100000088130000B80B0000D0070000AA
:0C40E00000127A00100000000100000037
:04000005080013C11B
:00000001FF
