:020000040800F2
:1000000000500020211400082113000827130008C5
:100010002D130008331300083913000800000000F6
:100020000000000000000000000000003F13000876
:100030004B1300080000000057130008631300086A
:10004000691400086914000869140008691400089C
:10005000691400086914000869140008691400088C
:10006000691400086914000869140008691400087C
:10007000691400086914000869140008691400086C
:10008000691400086914000869140008691400085C
:10009000691400086914000869140008691400084C
:1000A000691400086914000869140008691400083C
:1000B0007113000869140008691400086914000825
:1000C000691400086914000869140008691400081C
:1000D00069140008691400088513000869140008F1
:1000E0009913000869140008691400080000000052
:1000F0000000000000000000000000000000000000
:0C01000000000000000000005FF808F1A3
:10010C0010B5054C237833B9044B13B10448AFF345
:10011C0000800123237010BD90000020000000001F
:10012C009842000808B5034B1BB103490348AFF3D1
:10013C00008008BD000000009400002098420008D8
:10014C00034613F8012B002AFBD1181A013870470B
:10015C0080B582B000AF0346FB71FB7903F001035D
:10016C00DBB21A4608211A4801F05BFDFB795B08EB
:10017C00DBB203F00103DBB21A461021144801F084
:10018C0050FDFB799B08DBB203F00103DBB21A468E
:10019C0020210F4801F045FDFB79DB08DBB203F0B1
:1001AC000103DBB21A464021094801F03AFD012255
:1001BC000421074801F035FD012001F0B3F90022BC
:1001CC000421034801F02DFD00BF0837BD4680BD5A
:1001DC000008014080B582B000AF03460A46FB71AF
:1001EC001346BB71FB791A460121084801F019FD31
:1001FC00BB791B09DBB21846FFF7AAFFBB7918467F
:10020C00FFF7A6FF00BF0837BD4680BD00080140C0
:10021C0080B500AF002202210E4801F002FD33210F
:10022C000020FFF7D7FF32210020FFF7D3FF282152
:10023C000020FFF7CFFF0C210020FFF7CBFF06219A
:10024C000020FFF7C7FF01210020FFF7C3FF00BF0D
:10025C0080BD00BF0008014080B582B000AF0346EE
:10026C000A46FB711346BB71FB79002B07D1BB7996
:10027C00803BDBB219460020FFF7ACFF09E0FB79AD
:10028C00012B06D1BB79403BDBB219460020FFF7AE
:10029C00A1FF00BF0837BD4680BD90B585B000AF4B
:1002AC0078600023FB730AE0FB7B7A6813441B78AD
:1002BC0019460120FFF78EFFFB7B0133FB73FC7BA0
:1002CC007868FFF73DFF03469C42EDD300BF00BFAB
:1002DC001437BD4690BD000080B584B000AF786087
:1002EC0007F108037A680649184603F095FB07F1F5
:1002FC0008031846FFF7D1FF00BF1037BD4680BD7D
:10030C00B042000880B500AF4FF0FF3000F006F8A7
:10031C004FF0FF3000F048F800BF80BD80B582B0D0
:10032C0000AF78607B6840F24D12934220D07B681E
:10033C00B3F5A77F27DA7B686F2B03D07B68DE2BA6
:10034C000BD020E001220821164801F06AFC0122A2
:10035C002021144801F065FC20E0002208211148FE
:10036C0001F05FFC012220210E4801F05AFC15E03F
:10037C00012208210B4801F054FC002220210948DD
:10038C0001F04FFC0AE000220821064801F049FC6C
:10039C0000222021034801F044FC00BF00BF0837B5
:1003AC00BD4680BD000C014080B582B000AF7860C6
:1003BC007B6840F24D12934222D07B68B3F5A77F45
:1003CC002ADA7B686F2B03D07B68DE2B0CD023E002
:1003DC0001221021184801F024FC01224FF4806105
:1003EC00154801F01EFC23E000221021124801F0F8
:1003FC0018FC01224FF480610F4801F012FC17E049
:10040C00012210210C4801F00CFC00224FF48061F9
:10041C00094801F006FC0BE000221021064801F00F
:10042C0000FC00224FF48061034801F0FAFB00BF8E
:10043C0000BF0837BD4680BD000C014080B483B0BE
:10044C0000AF7860164A7B68012142F82310154AE8
:10045C007B68012142F82310134A7B68012142F882
:10046C002310124A7B68012142F82310104A7B6842
:10047C004FF47A7142F823100E4A7B68002142F83F
:10048C0023100D4A7B68002142F823100B4A7B682D
:10049C00002142F8231000BF0C37BD4680BC7047CA
:1004AC00D0000020DC0000200C010020C400002043
:1004BC00E80000200001002018010020F4000020BA
:1004CC0080B483B000AF7860094A7B6852F823305F
:1004DC00012B06D1064A7B68002142F82310012328
:1004EC0000E0002318460C37BD4680BC704700BFA7
:1004FC00F400002080B582B000AF00237B607DE06B
:10050C00434A7B6852F8232042497B6841F82320F8
:10051C00414A7B6852F823203D497B6841F82320EF
:10052C003E4A7B6852F823203D497B6831F81330F2
:10053C001946104601F05EFB03461946364A7B68A5
:10054C0042F82310324A7B6852F8232032497B68E8
:10055C0051F823309A424ED12D4A7B6852F8232011
:10056C002C497B6851F823309A4244D1294A7B6844
:10057C0052F823202B497B6851F823309A4219D02A
:10058C00244A7B6852F8232026497B6841F82320B3
:10059C00244A7B6852F82330002B2CD1224A7B68EA
:1005AC004FF47A7142F82310204A7B68012142F8FB
:1005BC00231020E01C4A7B6852F82330A3F10A0276
:1005CC0019497B6841F82320174A7B6852F823307D
:1005DC00002B10D1144A7B684FF4FA7142F82310A7
:1005EC00104A7B6852F82330002B04D10F4A7B68E9
:1005FC00012142F823107B6801337B607B68022B5E
:10060C007FF77EAF00BF00BF0837BD4680BD00BF7F
:10061C00DC0000200C010020D00000200000002095
:10062C000C000020C4000020E8000020F400002092
:10063C0080B400AF094B1A68094B1B681A44094B6C
:10064C001B689A4206D0054B1A68054B1B6813446D
:10065C00044A136000BFBD4680BC70471C000020DC
:10066C00180000201400002080B582B000AFC04BF1
:10067C001B68013B082B00F2B18101A252F823F058
:10068C00B10600085F070008A1070008DD06000896
:10069C001F07000825080008C30800084F090008B8
:1006AC00E1070008FFF7C4FFB14B04221A60B14BFD
:1006BC001B681946002000F0E9FC0020FFF700FF42
:1006CC000346002B00F08C81A94B09221A6087E1AC
:1006DC006F20FFF723FE40F24D10FFF765FE002060
:1006EC0000F0F4FC0346002B08D0A14B05221A6045
:1006FC00A14B1B681946002000F0C8FC0020FFF736
:10070C00DFFE0346002B00F06D81994B09221A6025
:10071C0068E16F20FFF702FEDE20FFF745FE0020A8
:10072C0000F0D4FC0346002B08D0914B02221A6037
:10073C00904B1B681946002000F0A8FC0020FFF726
:10074C00BFFE0346002B00F04F81894B09221A6033
:10075C004AE140F24D10FFF7E1FD6F20FFF724FE58
:10076C00002000F0B3FC0346002B08D0804B032282
:10077C001A60814B1B681946002000F087FC002092
:10078C00FFF79EFE0346002B00F03081784B0922C8
:10079C001A602BE1DE20FFF7C1FD6F20FFF704FE8E
:1007AC00002000F093FC0346002B08D0704B042271
:1007BC001A60704B1B681946002000F067FC002083
:1007CC00FFF77EFE0346002B00F01281684B0922D6
:1007DC001A600DE100237B6005E07868FFF72EFEC0
:1007EC007B6801337B607B68022BF6DD32210020B5
:1007FC0000F04CFC5E4B06221A60FFF783FD5F4B4A
:10080C001B685F4A13605C4B1B685D4A5360594B15
:10081C001B685B4A9360F2E00020FFF751FE034631
:10082C00002B09D0524B07221A60FFF76BFD3221C7
:10083C00002000F02BFCDDE00120FFF741FE034619
:10084C00002B06D04E4B1B6803F57A734C4A136091
:10085C00D0E00220FFF734FE0346002B0ED0484BAD
:10086C001B68464A13600021002000F00FFC6F202B
:10087C00FFF754FD6F20FFF797FDBBE0002000F061
:10088C0025FC0346002B00F0B58010213D4801F0FB
:10089C00E0F94FF480613B4801F0DBF9082139485D
:1008AC0001F0D7F92021374801F0D3F9322100208B
:1008BC0000F0ECFB9EE00020FFF702FE0346002B4D
:1008CC0009D02B4B08221A60FFF71CFD32210020A7
:1008DC0000F0DCFB90E00120FFF7F2FD0346002B5B
:1008EC0006D0274B5B6803F57A73254A536083E087
:1008FC000220FFF7E5FD0346002B0ED0204B5B6872
:10090C001D4A13600021002000F0C0FBDE20FFF721
:10091C0005FDDE20FFF748FD6EE0002000F0D6FB61
:10092C000346002B68D04FF48061164801F091F912
:10093C002021144801F08DF93221002000F0A6FB93
:10094C005AE00020FFF7BCFD0346002B03D0084BF8
:10095C0001221A6052E00120FFF7B2FD0346002B82
:10096C0012D0074B9B6803F57A73054A936045E0F8
:10097C00AC000020180000201C00002014000020F7
:10098C0024010020000C01400220FFF799FD0346D2
:10099C00002B10D01C4B9B681C4A136000210020BC
:1009AC0000F074FB40F24D10FFF7B8FC40F24D1014
:1009BC00FFF7FAFC22E0002000F088FB0346002B36
:1009CC001CD01021124801F044F90821104801F004
:1009DC0040F93221002000F059FB0FE000BF0EE07F
:1009EC0000BF0CE000BF0AE000BF08E000BF06E05B
:1009FC0000BF04E000BF02E000BF00E000BF00BF8A
:100A0C000837BD4680BD00BF24010020180000201F
:100A1C00000C014080B582B000AF00F021FD00F069
:100A2C0061F800F045F900F019F900F0CBF800F08E
:100A3C009BF8244801F0EAFE00F0EAF900237B6001
:100A4C0005E07868FFF7FAFC7B6801337B607B6814
:100A5C00022BF6DDFFF7DCFB1B4B01221A600A228E
:100A6C0000211A4800F0E4F90A220021184800F08D
:100A7C00DFF90A220021174800F0DAF900F080FAB9
:100A8C0000210020FFF7E8FB1348FFF706FC0021CC
:100A9C000120FFF7E1FB114B1B681846FFF71CFC0C
:100AAC0008210020FFF7D8FB0D4B1B681846FFF7F9
:100ABC0013FC08210120FFF7CFFB0748FFF7EDFBE4
:100ACC00DCE700BF84010020AC0000200105000819
:100ADC000D11000875060008B4420008140000202F
:100AEC001800002080B590B000AF07F11803282241
:100AFC000021184602F088FF3B1D00221A605A6044
:100B0C009A60DA601A610223BB610123BB62102375
:100B1C00FB6202237B630023BB634FF46013FB6314
:100B2C0007F11803184601F013FA0346002B01D005
:100B3C0000F068F90F237B600223BB600023FB608D
:100B4C004FF480633B6100237B613B1D02211846FF
:100B5C0001F07EFC0346002B01D000F053F900BFDE
:100B6C004037BD4680BD000080B500AF124B134A24
:100B7C001A60114B124A5A600F4B00229A600E4BAE
:100B8C000022DA600C4B4FF480421A610A4B0022AF
:100B9C005A61094B00229A61074B0022DA61064B1D
:100BAC0000221A62044801F08FF80346002B01D092
:100BBC0000F028F900BF80BD300100200054004037
:100BCC00A086010080B586B000AF07F108030022B3
:100BDC001A605A609A60DA603B4600221A605A60CA
:100BEC001D4B4FF080421A601B4B4FF6FF125A60A0
:100BFC00194B00229A60184B0922DA60164B00221E
:100C0C001A61154B00229A61134801F0AFFD03469F
:100C1C00002B01D000F0F6F84FF48053BB6007F1C5
:100C2C00080319460C4801F033FF0346002B01D092
:100C3C0000F0E8F800233B6000237B603B4619463C
:100C4C00054802F015F90346002B01D000F0DAF844
:100C5C0000BF1837BD4680BD8401002080B500AFB1
:100C6C00114B124A1A60104B4FF416525A600E4B2D
:100C7C0000229A600C4B0022DA600B4B00221A61A6
:100C8C00094B0C225A61084B00229A61064B002238
:100C9C00DA61054802F05CF90346002B01D000F044
:100CAC00B1F800BF80BD00BFCC0100200044004063
:100CBC0080B588B000AF07F1100300221A605A60AB
:100CCC009A60DA60454B9B69444A43F01003936188
:100CDC00424B9B6903F01003FB60FB683F4B9B6925
:100CEC003E4A43F0200393613C4B9B6903F0200385
:100CFC00BB60BB68394B9B69384A43F00403936172
:100D0C00364B9B6903F004037B607B68334B9B6918
:100D1C00324A43F008039361304B9B6903F008039C
:100D2C003B603B6800224FF4AC612D4800F079FF2A
:100D3C0000224FF487612B4800F073FF4FF40053EF
:100D4C003B61294B7B610023BB6107F11003194602
:100D5C00264800F0CBFD13233B6100237B6101236C
:100D6C00BB6107F1100319461D4800F0BFFD4FF49D
:100D7C00AC633B6101237B610023BB610223FB61FC
:100D8C0007F110031946164800F0B0FD01233B6132
:100D9C0000237B610123BB6107F110031946114845
:100DAC0000F0A4FD4FF487633B6101237B610023BA
:100DBC00BB610223FB6107F110031946094800F0DF
:100DCC0095FD00220021282000F0A7FC282000F02F
:100DDC00C0FC00BF2037BD4680BD00BF00100240E4
:100DEC0000080140000C01400000111000100140EF
:100DFC0080B582B000AF786000F0B4F800BF08375F
:100E0C00BD4680BD80B400AF72B600BFFEE70000E7
:100E1C0080B400AF044B00221A70044B00221A60FD
:100E2C0000BFBD4680BC7047B0000020B40000205D
:100E3C0080B485B000AFF860B9607A60294B1B783C
:100E4C00272B4AD8274B1B781946274A0B469B0061
:100E5C000B449B001344FA681A60224B1B7818460B
:100E6C00BB68224AA2FB0323DA081F4903469B00F6
:100E7C0003449B000B4404331A601A4B1B7818462E
:100E8C007B681A4AA2FB0323DA08174903469B0026
:100E9C0003449B000B4408331A60124B1B78194611
:100EAC00114A0B469B000B449B0013440C3300224D
:100EBC001A700C4B1A780B4B1B78194610460A4AC1
:100ECC000B469B000B449B00134410331860054BDE
:100EDC001B780133DAB2034B1A7000BF1437BD46CE
:100EEC0080BC7047B000002014020020CDCCCCCCCC
:100EFC00B0B485B000AF7860184B1B781A467B688D
:100F0C00934226D27B68FB6017E0FB685A1C14489E
:100F1C00F9680B469B000B449B0018441049134680
:100F2C009B0013449B000B4404461D460FCD0FC47D
:100F3C002B682360FB680133FB60084B1B78013B7B
:100F4C00FA689A42E1DB054B1B78013BDAB2034BA2
:100F5C001A7000BF1437BD46B0BC7047B0000020FB
:100F6C001402002080B400AF044B1B680133034A09
:100F7C00136000BFBD4680BC704700BFB4000020AA
:100F8C0080B582B000AF00237B606EE03C497A688C
:100F9C0013469B0013449B000B4404331A68394BD3
:100FAC001B689A4240D836497A6813469B00134412
:100FBC009B000B440C331B780133D8B230497A6850
:100FCC0013469B0013449B000B440C3302461A70CF
:100FDC002B497A6813469B0013449B000B4408333F
:100FEC001B68002B1CD026497A6813469B001344BF
:100FFC009B000B440433196821487A6813469B0004
:10100C0013449B00034408331B6819441C487A683A
:10101C0013469B0013449B0003440433196003E004
:10102C007B681846FFF764FF15497A6813469B00E6
:10103C0013449B000B440C331B78002B12D010492B
:10104C007A6813469B0013449B000B440C3300221C
:10105C001A700B497A6813469B0013449B000B448F
:10106C001B6898477B6801337B60074B1B781A46DB
:10107C007B6893428ADB00BF00BF0837BD4680BD4A
:10108C0014020020B4000020B000002080B483B013
:10109C0000AF786039603B68094A82FB03129210FA
:1010AC00DB17D21A07497B6841F82320064A7B6874
:1010BC00002142F8231000BF0C37BD4680BC70479E
:1010CC0067666666340500206005002080B483B036
:1010DC0000AF7860094A7B6852F82330012B06D1A7
:1010EC00064A7B68002142F82310012300E000230C
:1010FC0018460C37BD4680BC704700BF6005002009
:10110C0080B483B000AF00237B601CE0124A7B6884
:10111C0052F82330002B13DD0F4A7B6852F8233032
:10112C005A1E0D497B6841F823200B4A7B6852F804
:10113C002330002B04DC094A7B68012142F8231080
:10114C007B6801337B607B680A2BDFDD00BF00BF4F
:10115C000C37BD4680BC704734050020600500206C
:10116C0080B485B000AF154B9B69144A43F0010362
:10117C009361124B9B6903F00103BB60BB680F4B7F
:10118C00DB690E4A43F08053D3610C4BDB6903F0EF
:10119C0080537B607B680A4B5B68FB60FB6823F0C9
:1011AC00E063FB60FB6843F00073FB60044AFB6880
:1011BC00536000BF1437BD4680BC7047001002401E
:1011CC000000014080B588B000AF786007F11003D3
:1011DC0000221A605A609A60DA607B681B68154AB4
:1011EC00934223D1144B9B69134A43F00803936138
:1011FC00114B9B6903F00803FB60FB68C0233B6148
:10120C0012237B610323FB6107F1100319460B4882
:10121C0000F06CFB084BDB69074A43F40013D36105
:10122C00054BDB6903F40013BB60BB6800BF2037C0
:10123C00BD4680BD0054004000100240000C01402F
:10124C0080B584B000AF78607B681B68B3F1804FC9
:10125C0013D10C4BDB690B4A43F00103D361094BEF
:10126C00DB6903F00103FB60FB68002200211C20FA
:10127C0000F053FA1C2000F06CFA00BF1037BD468A
:10128C0080BD00BF0010024080B588B000AF786010
:10129C0007F1100300221A605A609A60DA607B68CA
:1012AC001B68194A93422BD1184BDB69174A43F43C
:1012BC000033D361154BDB6903F40033FB60FB682F
:1012CC00124B9B69114A43F0040393610F4B9B69CA
:1012DC0003F00403BB60BB680C233B6102237B61FE
:1012EC000223FB6107F110031946094800F0FEFACE
:1012FC0000220021262000F010FA262000F029FA06
:10130C0000BF2037BD4680BD0044004000100240A5
:10131C000008014080B400AFFEE780B400AFFEE7E8
:10132C0080B400AFFEE780B400AFFEE780B400AF3E
:10133C00FEE780B400AF00BFBD4680BC704780B4F0
:10134C0000AF00BFBD4680BC704780B400AF00BF8B
:10135C00BD4680BC704780B500AF00F0C7F800BF39
:10136C0080BD000080B500AF024801F0A1FA00BFBB
:10137C0080BD00BF8401002080B500AF024801F0A1
:10138C0037FE00BF80BD00BFCC01002080B500AF90
:10139C004FF4005000F076FC00BF80BD80B586B0E5
:1013AC0000AF7860144A154BD31A7B617B693B61A3
:1013BC00134B1B68002B02D1114B124A1A60104BB5
:1013CC001A687B6813443A699A4207D202F0F2FA1F
:1013DC0003460C221A604FF0FF3309E0084B1B68E0
:1013EC00FB60074B1A687B681344054A1360FB6863
:1013FC0018461837BD4680BD005000200004000080
:10140C00B8000020A005002080B400AF00BFBD468E
:10141C0080BC7047FFF7F8FF0B480C490C4A0023BF
:10142C0002E0D458C4500433C4188C42F9D3094A8E
:10143C00094C002301E013600432A242FBD302F0FA
:10144C00BFFAFFF7E7FA7047000000209000002079
:10145C002843000890000020A0050020FEE70000B3
:10146C0080B500AF084B1B68074A43F010031360AC
:10147C00032000F047F9002000F008F8FFF770FE99
:10148C000023184680BD00BF0020024080B582B00A
:10149C0000AF7860124B1A68124B1B7819464FF448
:1014AC007A73B3FBF1F3B2FBF3F3184600F05FF978
:1014BC000346002B01D001230EE07B680F2B0AD8CA
:1014CC00002279684FF0FF3000F027F9064A7B685C
:1014DC001360002300E0012318460837BD4680BD89
:1014EC0020000020280000202400002080B400AF41
:1014FC00054B1B781A46054B1B681344034A1360B3
:10150C0000BFBD4680BC7047280000208C05002021
:10151C0080B400AF024B1B681846BD4680BC7047B8
:10152C008C05002080B584B000AF7860FFF7F0FF29
:10153C00B8607B68FB60FB68B3F1FF3F05D00A4BDA
:10154C001B781A46FB681344FB6000BFFFF7E0FFF3
:10155C000246BB68D31AFA689A42F7D800BF00BF9C
:10156C001037BD4680BD00BF2800002080B485B078
:10157C0000AF78607B6803F00703FB600C4BDB6803
:10158C00BB60BA684FF6FF031340BB60FB681A02DE
:10159C00BB68134343F0BF6343F40033BB60044A9E
:1015AC00BB68D36000BF1437BD4680BC704700BF1A
:1015BC0000ED00E080B400AF044BDB681B0A03F0C5
:1015CC0007031846BD4680BC704700BF00ED00E025
:1015DC0080B483B000AF0346FB7197F90730002B42
:1015EC000BDBFB7903F01F02064997F907305B0907
:1015FC00012000FA02F241F8232000BF0C37BD464F
:10160C0080BC704700E100E080B483B000AF0346BB
:10161C003960FB7197F90730002B0ADB3B68DAB2B3
:10162C000C4997F907301201D2B20B4483F800230E
:10163C000AE03B68DAB20849FB7903F00F03043B7C
:10164C001201D2B20B441A7600BF0C37BD4680BCD7
:10165C00704700BF00E100E000ED00E080B489B00D
:10166C0000AFF860B9607A60FB6803F00703FB61B8
:10167C00FB69C3F10703042B28BF0423BB61FB697F
:10168C000433062B02D9FB69033B00E000237B618A
:10169C004FF0FF32BB6902FA03F3DA43BB681A401E
:1016AC007B699A404FF0FF317B6901FA03F3D94310
:1016BC007B680B40134318462437BD4680BC7047EB
:1016CC0080B582B000AF78607B68013BB3F1807F5E
:1016DC0001D301230FE00A4A7B68013B53600F21C1
:1016EC004FF0FF30FFF790FF054B00229A60044B40
:1016FC0007221A60002318460837BD4680BD00BF7C
:10170C0010E000E080B582B000AF78607868FFF739
:10171C002DFF00BF0837BD4680BD80B586B000AF39
:10172C000346B9607A60FB7300237B61FFF742FFCD
:10173C0078617A68B9687869FFF790FF024697F983
:10174C000F3011461846FFF75FFF00BF1837BD4634
:10175C0080BD80B582B000AF0346FB7197F90730AE
:10176C001846FFF735FF00BF0837BD4680BD80B572
:10177C0082B000AF78607868FFF7A2FF0346184686
:10178C000837BD4680BD80B485B000AF78600023BB
:10179C00FB737B6893F82130DBB2022B08D07B689B
:1017AC0004229A637B68002283F82020012320E026
:1017BC007B681B681A687B681B6822F00E021A6033
:1017CC007B681B681A687B681B6822F001021A6030
:1017DC007B681A6C7B68DB6B012101FA02F25A60A0
:1017EC007B68012283F821207B68002283F820206B
:1017FC00FB7B18461437BD4680BC704780B584B05F
:10180C0000AF78600023FB737B6893F82130DBB268
:10181C00022B05D07B6804229A630123FB7351E0F1
:10182C007B681B681A687B681B6822F00E021A60C2
:10183C007B681B681A687B681B6822F001021A60BF
:10184C007B681B68224A934229D07B681B68214A1B
:10185C00934222D07B681B681F4A93421AD07B6844
:10186C001B681E4A934212D07B681B681C4A934229
:10187C000AD07B681B681B4A934202D14FF4801339
:10188C000EE04FF080730BE04FF4803308E04FF420
:10189C00805305E04FF4807302E0102300E0012335
:1018AC00114A53607B68012283F821207B68002257
:1018BC0083F820207B685B6B002B03D07B685B6B11
:1018CC0078689847FB7B18461037BD4680BD00BF33
:1018DC00080002401C00024030000240440002405C
:1018EC00580002406C0002400000024080B48BB0F3
:1018FC0000AF7860396000237B6200233B6269E1B2
:10190C0001227B6A02FA03F3FB613B681B68FA69EC
:10191C001340BB61BA69FB699A4240F058813B683D
:10192C005B689A4A93425ED0984A934275D8984A1B
:10193C00934258D0964A93426FD8964A934252D0CB
:10194C00944A934269D8944A93424CD0924A934217
:10195C0063D8924A934246D0904A93425DD8122B58
:10196C002AD8122B59D801A252F823F0F3190008E7
:10197C00CD190008DF190008211A0008271A0008E1
:10198C00271A0008271A0008271A0008271A000827
:10199C00271A0008271A0008271A0008271A000817
:1019AC00271A0008271A0008271A0008271A000807
:1019BC00D5190008E9190008794A934213D02CE094
:1019CC003B68DB683B6229E03B68DB6804333B62C5
:1019DC0024E03B68DB6808333B621FE03B68DB6854
:1019EC000C333B621AE03B689B68002B02D104234A
:1019FC003B6213E03B689B68012B05D108233B62DB
:101A0C007B68FA691A6109E008233B627B68FA6912
:101A1C005A6103E000233B6200E000BFBB69FF2B6F
:101A2C0001D87B6801E07B6804337B61BB69FF2BC9
:101A3C0002D87B6A9B0002E07B6A083B9B003B61FF
:101A4C007B691A680F213B6901FA03F3DB431A40E7
:101A5C00396A3B6901FA03F31A437B691A603B68E4
:101A6C005B6803F08053002B00F0B1804D4B9B69F9
:101A7C004C4A43F0010393614A4B9B6903F0010309
:101A8C00BB60BB68484A7B6A9B08023352F8233020
:101A9C00FB607B6A03F003039B000F2202FA03F343
:101AAC00DB43FA681340FB607B68404A934213D0D7
:101ABC007B683F4A93420DD07B683E4A934207D0E5
:101ACC007B683D4A934201D1032306E0042304E0E2
:101ADC00022302E0012300E000237A6A02F00302F1
:101AEC0092009340FA681343FB602F497B6A9B0872
:101AFC000233FA6841F823203B685B6803F48013D7
:101B0C00002B06D02D4B9A682C49BB6913438B6074
:101B1C0006E02A4B9A68BB69DB43284913408B606B
:101B2C003B685B6803F40013002B06D0234BDA6888
:101B3C002249BB691343CB6006E0204BDA68BB69D2
:101B4C00DB431E491340CB603B685B6803F40033F6
:101B5C00002B06D0194B5A681849BB6913434B60CC
:101B6C0006E0164B5A68BB69DB43144913404B60C3
:101B7C003B685B6803F48033002B21D00F4B1A6851
:101B8C000E49BB6913430B6021E000BF000032100B
:101B9C000000311000002210000021100000121073
:101BAC00000011100010024000000140000801402C
:101BBC00000C0140001001400014014000040140E1
:101BCC000B4B1A68BB69DB43094913400B607B6AFA
:101BDC0001337B623B681A687B6A22FA03F3002BA1
:101BEC007FF48EAE00BF00BF2C37BD4680BC704763
:101BFC000004014080B485B000AF78600B467B8058
:101C0C007B689A687B881340002B02D00123FB73FE
:101C1C0001E00023FB73FB7B18461437BD4680BCE8
:101C2C00704780B483B000AF78600B467B8013465E
:101C3C007B707B78002B03D07A887B681A6103E079
:101C4C007B881A047B681A6100BF0C37BD4680BCC8
:101C5C00704780B485B000AF78600B467B807B68A2
:101C6C00DB68FB607A88FB6813401A04FB68D94375
:101C7C007B880B401A437B681A6100BF1437BD4642
:101C8C0080BC704780B582B000AF0346FB80084B28
:101C9C005A69FB881340002B06D0054AFB88536118
:101CAC00FB88184600F006F800BF0837BD4680BD1B
:101CBC000004014080B483B000AF0346FB8000BF3A
:101CCC000C37BD4680BC704780B584B000AF7860DF
:101CDC007B68002B01D101232BE17B6893F83D300D
:101CEC00DBB2002B06D17B68002283F83C2078689D
:101CFC00FFF768FA7B68242283F83D207B681B6819
:101D0C001A687B681B6822F001021A607B681B68EA
:101D1C001A687B681B6842F400421A607B681B6877
:101D2C001A687B681B6822F400421A6000F0D8FC29
:101D3C00F8607B685B68814A934207D8FB68804AED
:101D4C00934294BF01230023DBB206E0FB687D4A7B
:101D5C00934294BF01230023DBB2002B01D001235B
:101D6C00E7E0FB68784AA2FB03239B0CBB607B6813
:101D7C001B685B6823F03F017B681B68BA680A43E9
:101D8C005A607B681B681B6A23F03F017B685B68A9
:101D9C006A4A934202D8BB68013309E0BB684FF42E
:101DAC00967202FB03F3694AA2FB03239B090133DE
:101DBC007A6812680B4313627B681B68DB6923F437
:101DCC004F4222F0FF027B685B685C498B4219D85A
:101DDC00FB68591E7B685B685B00B1FBF3F3591C15
:101DEC0040F6FC730B40002B0AD0FB68591E7B6835
:101DFC005B685B00B1FBF3F30133C3F30B0351E0FE
:101E0C0004234FE07B689B68002B11D1FB68581EA4
:101E1C007B6859680B465B000B44B0FBF3F3013352
:101E2C00C3F30B03002B0CBF01230023DBB212E026
:101E3C00FB68581E7B6859680B469B000B44990045
:101E4C000B44B0FBF3F30133C3F30B03002B0CBFB8
:101E5C0001230023DBB2002B01D0012322E07B689D
:101E6C009B68002B0ED1FB68581E7B6859680B468B
:101E7C005B000B44B0FBF3F30133C3F30B0343F4EC
:101E8C0000430FE0FB68581E7B6859680B469B00AB
:101E9C000B4499000B44B0FBF3F30133C3F30B0376
:101EAC0043F44043796809681343CB617B681B6832
:101EBC001B6823F0C0017B68DA697B681B6A1A43D4
:101ECC007B681B680A431A607B681B689B6823F459
:101EDC00034323F0FF037A6811697A68D2681143CF
:101EEC007A6812680B4393607B681B68DB6823F08D
:101EFC00FF017B685A697B689B691A437B681B6886
:101F0C000A43DA607B681B681A687B681B6842F0BE
:101F1C0001021A607B6800221A647B68202283F815
:101F2C003D207B6800221A637B68002283F83E20E8
:101F3C00002318461037BD4680BD00BFA0860100A7
:101F4C007F841E00FF083D0083DE1B43D34D6210CF
:101F5C0080B586B000AF78607B68002B01D101237F
:101F6C006CE27B681B6803F00103002B00F0878098
:101F7C00924B5B6803F00C03042B0CD08F4B5B680B
:101F8C0003F00C03082B12D18C4B5B6803F48033E9
:101F9C00B3F5803F0BD1894B1B6803F40033002B46
:101FAC006CD07B685B68002B68D1012346E27B68B0
:101FBC005B68B3F5803F06D1804B1B687F4A43F4C6
:101FCC00803313602EE07B685B68002B0CD17B4B5D
:101FDC001B687A4A23F480331360784B1B68774A6A
:101FEC0023F4802313601DE07B685B68B3F5A02F9E
:101FFC000CD1724B1B68714A43F4802313606F4BF6
:10200C001B686E4A43F4803313600BE06B4B1B6808
:10201C006A4A23F480331360684B1B68674A23F4C5
:10202C00802313607B685B68002B13D0FFF770FA7A
:10203C00386108E0FFF76CFA02463B69D31A642B4F
:10204C0001D90323FAE15D4B1B6803F40033002B29
:10205C00F0D014E0FFF75CFA386108E0FFF758FAAB
:10206C0002463B69D31A642B01D90323E6E1534B97
:10207C001B6803F40033002BF0D100E000BF7B6839
:10208C001B6803F00203002B63D04C4B5B6803F01E
:10209C000C03002B0BD0494B5B6803F00C03082B93
:1020AC001CD1464B5B6803F48033002B16D1434B99
:1020BC001B6803F00203002B05D07B681B69012B06
:1020CC0001D00123BAE13D4B1B6823F0F8027B6879
:1020DC005B69DB00394913430B603AE07B681B6991
:1020EC00002B20D0364B01221A60FFF711FA386111
:1020FC0008E0FFF70DFA02463B69D31A022B01D90F
:10210C0003239BE12D4B1B6803F00203002BF0D043
:10211C002A4B1B6823F0F8027B685B69DB002749BC
:10212C0013430B6015E0264B00221A60FFF7F0F901
:10213C00386108E0FFF7ECF902463B69D31A022B31
:10214C0001D903237AE11D4B1B6803F00203002B1A
:10215C00F0D17B681B6803F00803002B3AD07B6836
:10216C009B69002B19D0174B01221A60FFF7D0F98D
:10217C00386108E0FFF7CCF902463B69D31A022B11
:10218C0001D903235AE10D4B5B6A03F00203002BC8
:10219C00F0D0012000F0CCFA1CE00A4B00221A60AF
:1021AC00FFF7B6F938610FE0FFF7B2F902463B6969
:1021BC00D31A022B08D9032340E100BF00100240C0
:1021CC0000004242800442429E4B5B6A03F00203D1
:1021DC00002BE9D17B681B6803F00403002B00F093
:1021EC00A6800023FB75974BDB6903F08053002B13
:1021FC000DD1944BDB69934A43F08053D361914BDF
:10220C00DB6903F08053BB60BB680123FB758E4B0D
:10221C001B6803F48073002B18D18B4B1B688A4A04
:10222C0043F480731360FFF773F9386108E0FFF72C
:10223C006FF902463B69D31A642B01D90323FDE0E5
:10224C00814B1B6803F48073002BF0D07B68DB6838
:10225C00012B06D17B4B1B6A7A4A43F001031362B4
:10226C002DE07B68DB68002B0CD1764B1B6A754A22
:10227C0023F001031362734B1B6A724A23F00403AD
:10228C0013621CE07B68DB68052B0CD16D4B1B6A61
:10229C006C4A43F0040313626A4B1B6A694A43F0AD
:1022AC00010313620BE0674B1B6A664A23F00103C0
:1022BC001362644B1B6A634A23F0040313627B684A
:1022CC00DB68002B15D0FFF723F938610AE0FFF724
:1022DC001FF902463B69D31A41F28832934201D965
:1022EC000323ABE0574B1B6A03F00203002BEED029
:1022FC0014E0FFF70DF938610AE0FFF709F902461F
:10230C003B69D31A41F28832934201D9032395E0F9
:10231C004C4B1B6A03F00203002BEED1FB7D012B0F
:10232C0005D1484BDB69474A23F08053D3617B6866
:10233C00DB69002B00F08180424B5B6803F00C03DF
:10234C00082B61D07B68DB69022B46D13F4B002206
:10235C001A60FFF7DDF8386108E0FFF7D9F802469C
:10236C003B69D31A022B01D9032367E0354B1B6859
:10237C0003F00073002BF0D17B681B6AB3F5803F30
:10238C0008D1304B5B6823F400327B689B682D4985
:10239C0013434B602B4B5B6823F474127B68196AF4
:1023AC007B685B6A0B43274913434B60274B012225
:1023BC001A60FFF7ADF8386108E0FFF7A9F802469C
:1023CC003B69D31A022B01D9032337E01D4B1B6841
:1023DC0003F00073002BF0D02FE01C4B00221A608E
:1023EC00FFF796F8386108E0FFF792F802463B6970
:1023FC00D31A022B01D9032320E0124B1B6803F0E4
:10240C000073002BF0D118E07B68DB69012B01D144
:10241C00012313E00B4B5B68FB60FB6803F4803219
:10242C007B681B6A9A4206D1FB6803F470127B68C6
:10243C005B6A9A4201D0012300E00023184618374A
:10244C00BD4680BD0010024000700040600042425A
:10245C0080B584B000AF786039607B68002B01D107
:10246C000123D0E06A4B1B6803F007033A689A42D9
:10247C0010D9674B1B6823F0070265493B6813436F
:10248C000B60634B1B6803F007033A689A4201D058
:10249C000123B8E07B681B6803F00203002B20D0FB
:1024AC007B681B6803F00403002B05D0594B5B6859
:1024BC00584A43F4E06353607B681B6803F00803DD
:1024CC00002B05D0534B5B68524A43F46053536066
:1024DC00504B5B6823F0F0027B689B684D491343BB
:1024EC004B607B681B6803F00103002B40D07B68BA
:1024FC005B68012B07D1474B1B6803F40033002B9F
:10250C0015D101237FE07B685B68022B07D1414B1F
:10251C001B6803F00073002B09D1012373E03D4BC2
:10252C001B6803F00203002B01D101236BE0394B34
:10253C005B6823F003027B685B68364913434B608E
:10254C00FEF7E6FFF8600AE0FEF7E2FF0246FB68E2
:10255C00D31A41F28832934201D9032353E02D4B15
:10256C005B6803F00C027B685B689B009A42EBD1C2
:10257C00274B1B6803F007033A689A4210D2244B8E
:10258C001B6823F0070222493B6813430B60204B66
:10259C001B6803F007033A689A4201D0012332E02A
:1025AC007B681B6803F00403002B08D0194B5B6895
:1025BC0023F4E0627B68DB68164913434B607B684D
:1025CC001B6803F00803002B09D0124B5B6823F443
:1025DC0060527B681B69DB000E4913434B6000F0B3
:1025EC0021F802460B4B5B681B0903F00F030A49E9
:1025FC00CB5C22FA03F3094A1360094B1B6818469B
:10260C00FEF744FF002318461037BD4680BD00BFBF
:10261C000020024000100240C042000820000020B0
:10262C002400002080B487B000AF0023FB6000239F
:10263C00BB6000237B6100237B6000233B611E4B4E
:10264C005B68FB60FB6803F00C03042B02D0082BC7
:10265C0003D027E0194B3B6127E0FB689B0C03F090
:10266C000F03174AD35C7B60FB6803F48033002BA9
:10267C0010D0114B5B685B0C03F00103114AD35C67
:10268C00BB607B680D4A02FB03F2BB68B2FBF3F341
:10269C007B6104E07B680C4A02FB03F37B617B6982
:1026AC003B6102E0054B3B6100BF3B6918461C37A0
:1026BC00BD4680BC704700BF0010024000127A007B
:1026CC00D8420008E842000800093D0080B400AF81
:1026DC00024B1B681846BD4680BC7047200000208A
:1026EC0080B500AFFFF7F2FF0246054B5B681B0A93
:1026FC0003F007030349CB5C22FA03F3184680BDB1
:10270C0000100240D042000880B500AFFFF7DEFF9A
:10271C000246054B5B68DB0A03F007030349CB5CFD
:10272C0022FA03F3184680BD00100240D042000884
:10273C0080B485B000AF78600A4B1B680A4AA2FBD4
:10274C0003235B0A7A6802FB03F3FB6000BFFB68A0
:10275C005A1EFA60002BF9D100BF00BF1437BD46DA
:10276C0080BC704720000020D34D621080B582B031
:10277C0000AF78607B68002B01D1012341E07B68BE
:10278C0093F83D30DBB2002B06D17B68002283F836
:10279C003C207868FEF754FD7B68022283F83D20CC
:1027AC007B681A687B6804331946104600F05CFAA3
:1027BC007B68012283F846207B68012283F83E2047
:1027CC007B68012283F83F207B68012283F840203C
:1027DC007B68012283F841207B68012283F8422028
:1027EC007B68012283F843207B68012283F8442014
:1027FC007B68012283F845207B68012283F83D2009
:10280C00002318460837BD4680BD000080B485B053
:10281C0000AF78607B6893F83D30DBB2012B01D0C0
:10282C0001233AE07B68022283F83D207B681B6819
:10283C00DA687B681B6842F00102DA607B681B680F
:10284C00184A93420ED07B681B68B3F1804F09D0B5
:10285C007B681B68144A934204D07B681B68134A3C
:10286C00934211D17B681B689B6803F00703FB60E4
:10287C00FB68062B10D07B681B681A687B681B688A
:10288C0042F001021A6007E07B681B681A687B68DB
:10289C001B6842F001021A60002318461437BD462B
:1028AC0080BC7047002C0140000400400008004030
:1028BC0080B584B000AF78607B681B68DB68FB6018
:1028CC007B681B681B69BB60BB6803F00203002BB1
:1028DC0020D0FB6803F00203002B1BD07B681B6825
:1028EC006FF002021A617B6801221A777B681B6801
:1028FC009B6903F00303002B03D0786800F098F970
:10290C0005E0786800F08BF9786800F09AF97B683C
:10291C0000221A77BB6803F00403002B20D0FB685D
:10292C0003F00403002B1BD07B681B686FF00402C0
:10293C001A617B6802221A777B681B689B6903F417
:10294C004073002B03D0786800F072F905E07868CA
:10295C0000F065F9786800F074F97B6800221A774A
:10296C00BB6803F00803002B20D0FB6803F00803BE
:10297C00002B1BD07B681B686FF008021A617B6808
:10298C0004221A777B681B68DB6903F00303002BB6
:10299C0003D0786800F04CF905E0786800F03FF956
:1029AC00786800F04EF97B6800221A77BB6803F058
:1029BC001003002B20D0FB6803F01003002B1BD05E
:1029CC007B681B686FF010021A617B6808221A770B
:1029DC007B681B68DB6903F44073002B03D07868B9
:1029EC0000F026F905E0786800F019F9786800F035
:1029FC0028F97B6800221A77BB6803F00103002BCF
:102A0C000CD0FB6803F00103002B07D07B681B681C
:102A1C006FF001021A617868FEF7EAF9BB6803F0FF
:102A2C008003002B0CD0FB6803F08003002B07D035
:102A3C007B681B686FF080021A61786800F07FFA7F
:102A4C00BB6803F04003002B0CD0FB6803F0400381
:102A5C00002B07D07B681B686FF040021A61786806
:102A6C0000F0F8F8BB6803F02003002B0CD0FB68D7
:102A7C0003F02003002B07D07B681B686FF020024B
:102A8C001A61786800F052FA00BF1037BD4680BD5D
:102A9C0080B584B000AF786039600023FB737B682D
:102AAC0093F83C30012B01D10223B4E07B68012266
:102ABC0083F83C207B68022283F83D207B681B68EE
:102ACC009B68BB60BB6823F07703BB60BB6823F4D7
:102ADC007F43BB607B681B68BA689A603B681B6865
:102AEC00B3F5005F3ED0B3F5005F00F28780B3F51D
:102AFC00805F00F08680B3F5805F7FD8702B1AD092
:102B0C00702B7BD8602B50D0602B77D8502B3CD0BF
:102B1C00502B73D8402B58D0402B6FD8302B64D00F
:102B2C00302B6BD8202B60D0202B67D8002B5CD09F
:102B3C00102B5AD062E07B6818683B6899683B6838
:102B4C005A683B68DB6800F074F97B681B689B680B
:102B5C00BB60BB6843F07703BB607B681B68BA68DB
:102B6C009A604FE07B6818683B6899683B685A68C4
:102B7C003B68DB6800F05DF97B681B689A687B68D2
:102B8C001B6842F480429A603CE07B6818683B68A2
:102B9C0059683B68DB681A4600F0D4F87B681B6800
:102BAC005021184600F02BF92CE07B6818683B6824
:102BBC0059683B68DB681A4600F0F2F87B681B68C2
:102BCC006021184600F01BF91CE07B6818683B6814
:102BDC0059683B68DB681A4600F0B4F87B681B68E0
:102BEC004021184600F00BF90CE07B681A683B6832
:102BFC001B681946104600F002F903E00123FB7331
:102C0C0000E000BF7B68012283F83D207B68002236
:102C1C0083F83C20FB7B18461037BD4680BD80B442
:102C2C0083B000AF786000BF0C37BD4680BC7047E6
:102C3C0080B483B000AF786000BF0C37BD4680BC59
:102C4C00704780B483B000AF786000BF0C37BD46CE
:102C5C0080BC704780B483B000AF786000BF0C3785
:102C6C00BD4680BC7047000080B485B000AF786072
:102C7C0039607B681B68FB607B682F4A93420BD0E2
:102C8C007B68B3F1804F07D07B682C4A934203D00A
:102C9C007B682B4A934208D1FB6823F07003FB60DE
:102CAC003B685B68FA681343FB607B68224A93427B
:102CBC000BD07B68B3F1804F07D07B681F4A9342DF
:102CCC0003D07B681E4A934208D1FB6823F44073FF
:102CDC00FB603B68DB68FA681343FB60FB6823F01E
:102CEC0080023B685B691343FB607B68FA681A607F
:102CFC003B689A687B68DA623B681A687B689A6200
:102D0C007B680D4A934203D13B681A697B681A634E
:102D1C007B6801225A617B681B6903F00103002B5D
:102D2C0005D07B681B6923F001027B681A6100BF28
:102D3C001437BD4680BC7047002C01400004004095
:102D4C000008004080B487B000AFF860B9607A60CA
:102D5C00FB681B6A7B61FB681B6A23F00102FB6842
:102D6C001A62FB689B693B613B6923F0F0033B6192
:102D7C007B681B013A6913433B617B6923F00A03AF
:102D8C007B617A69BB6813437B61FB683A699A6122
:102D9C00FB687A691A6200BF1C37BD4680BC70475D
:102DAC0080B487B000AFF860B9607A60FB681B6ACA
:102DBC007B61FB681B6A23F01002FB681A62FB68DC
:102DCC009B693B613B6923F470433B617B681B034C
:102DDC003A6913433B617B6923F0A0037B61BB68B9
:102DEC001B017A6913437B61FB683A699A61FB6842
:102DFC007A691A6200BF1C37BD4680BC704780B42C
:102E0C0085B000AF786039607B689B68FB60FB68BD
:102E1C0023F07003FB603A68FB68134343F007032D
:102E2C00FB607B68FA689A6000BF1437BD4680BCB3
:102E3C00704780B487B000AFF860B9607A603B60CF
:102E4C00FB689B687B617B6923F47F437B613B68F8
:102E5C001A027B681A43BB6813437A6913437B617C
:102E6C00FB687A699A6000BF1C37BD4680BC70470E
:102E7C0080B485B000AF786039607B6893F83C30E3
:102E8C00012B01D1022346E07B68012283F83C2010
:102E9C007B68022283F83D207B681B685B68FB60C3
:102EAC007B681B689B68BB60FB6823F07003FB604E
:102EBC003B681B68FA681343FB607B681B68FA6805
:102ECC005A607B681B68164A93420ED07B681B685D
:102EDC00B3F1804F09D07B681B68124A934204D02F
:102EEC007B681B68104A93420CD1BB6823F08003AB
:102EFC00BB603B685B68BA681343BB607B681B684C
:102F0C00BA689A607B68012283F83D207B680022B6
:102F1C0083F83C20002318461437BD4680BC70470C
:102F2C00002C0140000400400008004080B483B035
:102F3C0000AF786000BF0C37BD4680BC704780B4D2
:102F4C0083B000AF786000BF0C37BD4680BC7047C3
:102F5C0080B582B000AF78607B68002B01D1012373
:102F6C0042E07B6893F84130DBB2002B06D17B68E2
:102F7C00002283F840207868FEF786F97B682422CB
:102F8C0083F841207B681B68DA687B681B6822F435
:102F9C000052DA60786800F07FFC7B681B681A6965
:102FAC007B681B6822F490421A617B681B685A6923
:102FBC007B681B6822F02A025A617B681B68DA68FE
:102FCC007B681B6842F40052DA607B6800225A640A
:102FDC007B68202283F841207B68202283F84220E2
:102FEC007B6800225A63002318460837BD4680BD13
:102FFC0080B5BAB000AF78607B681B681B68C7F8F7
:10300C00E4307B681B68DB68C7F8E0307B681B68C2
:10301C005B69C7F8DC300023C7F8D8300023C7F849
:10302C00D430D7F8E43003F00F03C7F8D830D7F812
:10303C00D830002B0FD1D7F8E43003F02003002B4D
:10304C0009D0D7F8E03003F02003002B03D07868C8
:10305C0000F063FB5BE2D7F8D830002B00F0DE8089
:10306C00D7F8DC3003F00103002B06D1D7F8E030A1
:10307C0003F49073002B00F0D180D7F8E43003F008
:10308C000103002B0BD0D7F8E03003F48073002B36
:10309C0005D07B685B6C43F001027B685A64D7F8FF
:1030AC00E43003F00403002B0BD0D7F8DC3003F032
:1030BC000103002B05D07B685B6C43F002027B683C
:1030CC005A64D7F8E43003F00203002B0BD0D7F886
:1030DC00DC3003F00103002B05D07B685B6C43F004
:1030EC0004027B685A64D7F8E43003F00803002B21
:1030FC0011D0D7F8E03003F02003002B05D1D7F81E
:10310C00DC3003F00103002B05D07B685B6C43F0D3
:10311C0008027B685A647B685B6C002B00F0F281C0
:10312C00D7F8E43003F02003002B08D0D7F8E030B8
:10313C0003F02003002B02D0786800F0EEFA7B68D5
:10314C001B685B6903F04003002B14BF01230023B1
:10315C00DBB2C7F8D4307B685B6C03F00803002B40
:10316C0003D1D7F8D430002B4FD0786800F0F8F9A1
:10317C007B681B685B6903F04003002B41D07B68C4
:10318C001B681433C7F89C30D7F89C3053E8003FC9
:10319C00C7F89830D7F8983023F04003C7F8D030F0
:1031AC007B681B681433D7F8D020C7F8A820C7F861
:1031BC00A430D7F8A410D7F8A82041E80023C7F80A
:1031CC00A030D7F8A030002BD9D17B68DB6B002B5B
:1031DC0013D07B68DB6B7E4A5A637B68DB6B1846CB
:1031EC00FEF70CFB0346002B16D07B68DB6B5B6B8E
:1031FC007A68D26B104698470EE0786800F09CF91C
:10320C000AE0786800F098F906E0786800F094F924
:10321C007B6800225A6475E100BF73E17B681B6B0D
:10322C00012B40F04F81D7F8E43003F01003002B52
:10323C0000F04881D7F8E03003F01003002B00F0C9
:10324C0041810023BB607B681B681B68BB607B688B
:10325C001B685B68BB60BB687B681B685B6903F0C1
:10326C004003002B00F0B6807B68DB6B1B685B684F
:10327C00A7F8BE30B7F8BE30002B00F045817B6854
:10328C009B8DB7F8BE209A4280F03E817B68B7F8E0
:10329C00BE20DA857B68DB6B9B69202B00F0888075
:1032AC007B681B680C33C7F88830D7F8883053E834
:1032BC00003FC7F88430D7F8843023F48073C7F804
:1032CC00B8307B681B680C33D7F8B820C7F894204B
:1032DC00C7F89030D7F89010D7F8942041E8002325
:1032EC00C7F88C30D7F88C30002BD9D17B681B6891
:1032FC0014337B677B6F53E8003F3B673B6F23F0D6
:10330C000103C7F8B4307B681B681433D7F8B420BA
:10331C00C7F88020FB67F96FD7F8802041E80023BD
:10332C00BB67BB6F002BE1D17B681B6814333B661A
:10333C003B6E53E8003FFB65FB6D23F04003C7F881
:10334C00B0307B681B681433D7F8B020FA66BB66C4
:10335C00B96EFA6E41E800237B667B6E002BE3D1DD
:10336C007B68202283F842207B6800221A637B68EA
:10337C001B680C33FB64FB6C53E8003FBB64BB6CF9
:10338C0023F01003C7F8AC307B681B680C33D7F8FC
:10339C00AC20BA657B65796DBA6D41E800233B655D
:1033AC003B6D002BE3D17B68DB6B1846FEF7EBF92A
:1033BC007B6802225A637B689A8D7B68DB8D9BB29B
:1033CC00D31A9BB21946786800F0BFF89CE000BF96
:1033DC00313600087B689A8D7B68DB8D9BB2D31AE3
:1033EC00A7F8CE307B68DB8D9BB2002B00F08E8073
:1033FC00B7F8CE30002B00F089807B681B680C334B
:10340C00BB63BB6B53E8003F7B637B6B23F4907314
:10341C00C7F8C8307B681B680C33D7F8C8207A64AF
:10342C003B64396C7A6C41E80023FB63FB6B002B2B
:10343C00E3D17B681B6814337B627B6A53E8003FE3
:10344C003B623B6A23F00103C7F8C4307B681B68FE
:10345C001433D7F8C4203A63FB62F96A3A6B41E83B
:10346C000023BB62BB6A002BE3D17B68202283F86C
:10347C0042207B6800221A637B681B680C333B611B
:10348C003B6953E8003FFB60FB6823F01003C7F86F
:10349C00C0307B681B680C33D7F8C020FA61BB6165
:1034AC00B969FA6941E800237B617B69002BE3D1A0
:1034BC007B6802225A63B7F8CE301946786800F060
:1034CC0044F823E0D7F8E43003F08003002B09D054
:1034DC00D7F8E03003F08003002B03D0786800F0BD
:1034EC00B5F814E0D7F8E43003F04003002B0ED00D
:1034FC00D7F8E03003F04003002B08D0786800F0D8
:10350C00F4F804E000BF02E000BF00E000BFE837C1
:10351C00BD4680BD80B483B000AF786000BF0C376F
:10352C00BD4680BC704780B483B000AF786000BFEC
:10353C000C37BD4680BC704780B483B000AF786058
:10354C0000BF0C37BD4680BC704780B483B000AF61
:10355C0078600B467B8000BF0C37BD4680BC704743
:10356C0080B495B000AF78607B681B680C337B63CC
:10357C007B6B53E8003F3B633B6B23F49073FB6422
:10358C007B681B680C33FA6C3A64FB63F96B3A6C1E
:10359C0041E80023BB63BB6B002BE5D17B681B6848
:1035AC0014333B623B6A53E8003FFB61FB6923F039
:1035BC000103BB647B681B681433BA6CFA62BB6290
:1035CC00B96AFA6A41E800237B627B6A002BE5D179
:1035DC007B681B6B012B19D17B681B680C33FB6060
:1035EC00FB6853E8003FBB60BB6823F010037B64AF
:1035FC007B681B680C337A6CBA617B617969BA6938
:10360C0041E800233B613B69002BE5D17B6820221C
:10361C0083F842207B6800221A6300BF5437BD46F2
:10362C0080BC704780B584B000AF78607B685B6A03
:10363C00FB60FB680022DA85FB680022DA84F868FC
:10364C00FFF77AFF00BF1037BD4680BD80B485B050
:10365C0000AF78607B6893F84130DBB2212B3ED110
:10366C007B689B68B3F5805F14D17B681B69002B6A
:10367C0010D17B681B6AFB60FB681B881A467B6851
:10368C001B68C2F308025A607B681B6A9A1C7B6831
:10369C001A6208E07B681B6A591C7A6811621A78F6
:1036AC007B681B685A607B68DB8C9BB2013B9BB2CE
:1036BC007A681946D184002B0FD17B681B68DA68B5
:1036CC007B681B6822F08002DA607B681B68DA6812
:1036DC007B681B6842F04002DA60002300E00223A2
:1036EC0018461437BD4680BC704780B582B000AF19
:1036FC0078607B681B68DA687B681B6822F0400284
:10370C00DA607B68202283F841207868FFF702FF9B
:10371C00002318460837BD4680BD80B58CB000AF7D
:10372C0078607B6893F84230DBB2222B40F0AE809D
:10373C007B689B68B3F5805F17D17B681B69002B96
:10374C0013D10023FB627B689B6ABB627B681B689E
:10375C005B689BB2C3F308039AB2BB6A1A807B689E
:10376C009B6A9A1C7B689A6226E07B689B6AFB6268
:10377C000023BB627B689B68B3F5805F07D07B68D6
:10378C009B68002B0AD17B681B69002B06D17B68D8
:10379C001B685B68DAB2FB6A1A7008E07B681B680E
:1037AC005B68DBB203F07F03DAB2FB6A1A707B68EA
:1037BC009B6A5A1C7B689A627B68DB8D9BB2013BCF
:1037CC009BB27A681946D185002B5DD17B681B684A
:1037DC00DA687B681B6822F02002DA607B681B6861
:1037EC00DA687B681B6822F48072DA607B681B687D
:1037FC005A697B681B6822F001025A617B6820229F
:10380C0083F842207B6800225A637B681B6B012B78
:10381C0035D17B6800221A637B681B680C337B6193
:10382C007B6953E8003F3B613B6923F010037B62EB
:10383C007B681B680C337A6A3A62FB61F9693A6AF5
:10384C0041E80023BB61BB69002BE5D17B681B6899
:10385C001B6803F01003102B0AD10023FB607B685C
:10386C001B681B68FB607B681B685B68FB60FB6804
:10387C007B689B8D19467868FFF767FE02E07868D5
:10388C00FFF751FE002302E0002300E0022318465C
:10389C003037BD4680BD000080B584B000AF786085
:1038AC007B681B681B6923F440517B68DA687B6872
:1038BC001B680A431A617B689A687B681B691A4308
:1038CC007B685B691343BB607B681B68DB6823F414
:1038DC00B05323F00C037A681268B9680B43D360B9
:1038EC007B681B685B6923F440717B689A697B6811
:1038FC001B680A435A617B681B682C4A934203D1AC
:10390C00FEF702FFF86002E0FEF7EAFEF860FA68E4
:10391C0013469B0013449A001A447B685B689B0017
:10392C00B2FBF3F3224AA2FB03235B091901FA68E9
:10393C0013469B0013449A001A447B685B689B00F7
:10394C00B2FBF3F21A4BA3FB02035B09642000FBEE
:10395C0003F3D31A1B013233154AA2FB03235B0971
:10396C0003F0F0031944FA6813469B0013449A00C1
:10397C001A447B685B689B00B2FBF3F20C4BA3FB15
:10398C0002035B09642000FB03F3D31A1B013233DF
:10399C00074AA2FB03235B0903F00F027B681B6839
:1039AC000A449A6000BF1037BD4680BD0038014004
:1039BC001F85EB51014B1868704700BF2C0000208D
:1039CC0070B500260C4D0D4C641BA410A64209D1F9
:1039DC0000F05CFC00260A4D0A4C641BA410A642A5
:1039EC0005D170BD55F8043B98470136EEE755F804
:1039FC00043B98470136F2E72043000820430008B7
:103A0C00204300082443000803460244934200D19B
:103A1C00704703F8011BF9E70EB46FF0004100B5D5
:103A2C009CB01DAB0290069007910491084809497F
:103A3C0053F8042B0591006802A9019300F068F873
:103A4C000022029B1A701CB05DF804EB03B07047A7
:103A5C002C0000200802FFFF2DE9F0478E688246FB
:103A6C009E420C4690461F4638D88A8912F4906FB5
:103A7C0032D0256809690133A5EB010965694B440E
:103A8C0005EB450505EBD5756D109D4238BF1D4600
:103A9C00530531D5294600F053FB064650B90C238B
:103AAC004FF0FF30CAF80030A38943F04003A381E4
:103ABC00BDE8F0874A46216900F0CEFAA38923F4C9
:103ACC00906343F08003A38126614E4426603E46FA
:103ADC006561A5EB0905A560BE4200D93E4632469C
:103AEC004146206800F0C6FAA36822689B1B32444A
:103AFC000020A3602260DBE72A4600F07BFB064631
:103B0C000028E1D15046216900F0CEFAC7E7000049
:103B1C002DE9F04F98468B8907461B060D46144637
:103B2C009DB00ED50B6963B9402100F009FB2860EC
:103B3C00286120B90C233B604FF0FF30D1E04023CB
:103B4C006B610023099320238DF8293030234FF02B
:103B5C000109CDF80C80DFF8A4818DF82A302346BA
:103B6C009A4613F8012B0AB1252AF9D1BAEB040BAA
:103B7C000BD05B46224629463846FFF76DFF0130D5
:103B8C0000F0AA80099A5A4409929AF80030002B46
:103B9C0000F0A28000234FF0FF32CDE905230AF19B
:103BAC00010A049307938DF853301A935446052257
:103BBC0014F8011B514800F041FA049AD8B9D00608
:103BCC0044BF20238DF85330110744BF2B238DF8AD
:103BDC0053309AF800302A2B15D0544600204FF061
:103BEC000A0C079A214611F8013B303B092B4ED9A0
:103BFC00B0B1079214E0A0EB080309FA03F31343E6
:103C0C00A2460493D2E7039B191D1B680391002B5A
:103C1C00BBBF5B4242F0020207930793B8BF04920A
:103C2C0023782E2B0CD163782A2B35D1039B0234AD
:103C3C001A1D1B680392002BB8BF4FF0FF3305937E
:103C4C00DFF8C8A003225046217800F0F7F940B104
:103C5C004023A0EB0A0003FA00F0049B0134034359
:103C6C00049314F8011B062225488DF8281000F047
:103C7C00E5F9002838D0234B1BBB039B073323F0FB
:103C8C00070308330393099B3344099367E70C46F6
:103C9C0001200CFB0232A5E700234FF00A0C194659
:103CAC0001340593204610F8012B303A092A03D928
:103CBC00002BC5D00591C3E7044601230CFB012161
:103CCC00F0E703AB00932A4638460F4B04A9AFF339
:103CDC000080421C0646D6D1AB895B063FF52CAF63
:103CEC0009981DB0BDE8F08F03AB00932A46384607
:103CFC00054B04A900F07CF8EBE700BFEA42000892
:103D0C00F442000800000000653A0008F042000888
:103D1C002DE9F047164699468A680B690746934287
:103D2C00B8BF1346336091F843200C46DDF8208071
:103D3C000AB1013333602368990642BF33680233FA
:103D4C003360256815F0060506D104F1190AE368FD
:103D5C0032689B1AAB4228DC94F84320131E22686D
:103D6C0018BF012392062DD44946384604F143026C
:103D7C00C047013020D02368E56803F00603042B0C
:103D8C0018BF002532684FF00006A36808BFAD1AB3
:103D9C00226908BF25EAE5759342C4BF9B1AED184A
:103DAC001A34B5421AD1002008E001235246494684
:103DBC003846C047013003D14FF0FF30BDE8F087E3
:103DCC000135C4E73020E11881F843005A1C94F8FF
:103DDC0045102244023382F84310C5E701232246E2
:103DEC0049463846C0470130E6D00136D9E70000D5
:103DFC002DE9FF470C46277E9146782F80469A4640
:103E0C000C9904F1430207D8622F0AD8002F00F056
:103E1C00D980582F00F0A48004F1420684F8427037
:103E2C003AE0A7F16303152BF6D801A050F823F064
:103E3C00953E0008A93E0008253E0008253E0008D6
:103E4C00253E0008253E0008A93E0008253E000836
:103E5C00253E0008253E0008253E0008B73F000817
:103E6C00D93E0008993F0008253E0008253E000871
:103E7C00D93F0008253E0008D93E0008253E000821
:103E8C00253E0008A13F00080B6804F142061A1DEC
:103E9C001B680A6084F842300123A4E02568086896
:103EAC002E0600F104030AD505680B60002D03DA19
:103EBC002D236D4284F843300A235E4819E015F037
:103ECC00400F05680B6018BF2DB2EFE70B68256833
:103EDC00181D0860280601D51D6802E06906FBD58F
:103EEC001D886F2F0CBF08230A235248002184F829
:103EFC0043106668002EA8BF2168A660A4BF21F0FD
:103F0C00040121600DB9002E4DD01646B5FBF3F11E
:103F1C0003FB1157C75D06F8017D2F46BB420D46CA
:103F2C00F4D9082B0BD12368DF0708D52369616806
:103F3C009942DEBF302306F8013C06F1FF36921B96
:103F4C0022614B4621464046CDF800A003AAFFF75C
:103F5C00DFFE01304CD14FF0FF3004B0BDE8F087EC
:103F6C00344884F845700E68236856F8045B1F06C5
:103F7C000E6014D5D90744BF43F0200323601DB94C
:103F8C00236823F0200323601023AFE7236843F05A
:103F9C00200323607823284884F84530E3E75E0645
:103FAC0048BFADB2E6E71646BBE70B6826681D1D99
:103FBC0060690D6035061B6801D5186002E071065A
:103FCC00FBD51880002316462361BAE70B681A1D2F
:103FDC000A601E6800213046626800F02FF808B1B4
:103FEC00801B606063682361002384F84330A8E77A
:103FFC003246494640462369D0470130ABD023684E
:10400C009B0713D4E068039B9842B8BF1846A4E7FB
:10401C000123324649464046D04701309BD00135FA
:10402C00E36803995B1AAB42F2DCEBE7002504F181
:10403C001906F5E7FB4200080C430008034610B5CF
:10404C00C9B202449342184601D1002003E004781F
:10405C0001338C42F6D110BD0A44914200F1FF337A
:10406C0000D1704710B511F8014B914203F8014F84
:10407C00F9D110BD884210B501EB020402D984427B
:10408C00234607D8431EA14208D011F8012B03F890
:10409C00012FF8E7014602448A4200D110BD13F803
:1040AC00014D02F8014DF7E738B50546002943D01C
:1040BC0051F8043C0C1F002BB8BFE41800F0D0F8EA
:1040CC001E4A1368104633B9636014602846BDE875
:1040DC00384000F0CBB8A3420AD921686218934249
:1040EC0001BF1A685B685218226063600460EDE7D8
:1040FC001A465B680BB1A342FAD911685018A0425A
:10410C000BD120680144501883421160DED118682D
:10411C005B68014411605360D8E702D90C232B6013
:10412C00D4E7206821188B4201BF19685B68091815
:10413C00216063605460C9E738BD00BFBC0000203B
:10414C00F8B5CD1C25F0030508350C2D38BF0C2512
:10415C00002D064601DBA94203D90C233360002055
:10416C00F8BD00F07DF821490A6814469CB9204F2F
:10417C003B6823B92146304600F062F83860294686
:10418C00304600F05DF8431C23D10C2330463360DD
:10419C0000F06CF8E3E723685B1B17D40B2B03D9F7
:1041AC0023601C44256004E06368A2420CBF0B60D2
:1041BC005360304600F05AF804F10B00231D20F038
:1041CC000700C21ACCD01B1AA350C9E72246646858
:1041DC00CCE7C41C24F00304A042E3D0211A3046DF
:1041EC0000F02EF80130DDD1CFE700BFBC0000207D
:1041FC00C0000020F8B5074614460E4621B91146FA
:10420C00BDE8F840FFF79CBF22B9FFF74DFF2546EC
:10421C002846F8BD00F030F8A0420FD221463846AF
:10422C00FFF78EFF05460028F2D031462246FFF7F5
:10423C0013FF31463846FFF737FFE9E73546E7E726
:10424C0038B50023054D044608462B60FDF7A6F84B
:10425C00431C02D12B6803B1236038BD90050020AC
:10426C00014800F011B800BF98050020014800F08B
:10427C000CB800BF9805002051F8043C181F002B07
:10428C00BCBF0B58C018704770477047F8B500BFDB
:10429C00F8BC08BC9E467047F8B500BFF8BC08BC1B
:0442AC009E46704773
:1042B0002564000054524146464943310000000045
:1042C00000000000000000000102030406070809C6
:1042D00000000000010203040203040506070809A8
:1042E0000A0B0C0D0E0F10100102232D302B200095
:1042F000686C4C00656667454647003031323334A0
:10430000353637383941424344454600303132333F
:104310003435363738396162636465660000000001
:04432000310100085F
:044324000D0100087F
:104328000008014000080140000C01400200100094
:104338000100000088130000B80B0000D00700003F
:1043480000127A0010000000010000003000002078
:104358000000000000000000000000000000000055
:104368000000000000000000000000000000000045
:104378000000000000000000000000000000000035
:104388000000000000000000000000000000000025
:104398000000000000000000000000000000000015
:1043A8000000000000000000000000000000000005
:0400000508001421BA
:00000001FF
